:020000040800F2
:10000000008001208D020008DD020008DD020008EA
:10001000DD020008DD020008DD020008000000002B
:10002000000000000000000000000000DD020008E9
:10003000DD02000800000000DD020008DD0200080B
:10004000DD020008DD020008DD020008DD02000814
:10005000DD020008DD020008DD020008DD02000804
:10006000DD020008DD020008DD020008DD020008F4
:10007000DD020008DD020008DD020008DD020008E4
:10008000DD020008DD020008DD02000800000000BB
:10009000000000000000000000000000DD02000879
:1000A000DD020008DD020008DD020008DD020008B4
:1000B000DD020008DD020008DD020008DD020008A4
:1000C000DD020008DD020008DD020008DD02000894
:1000D000DD020008DD020008DD020008000000006B
:1000E000DD020008DD020008DD020008000000005B
:1000F000000000000000000000000000DD02000819
:1001000000000000DD020008DD020008DD0200083A
:1001100000000000000000000000000000000000DF
:10012000DD020008DD020008DD020008DD02000833
:10013000DD020008000000000000000000000000D8
:10014000000000000000000000000000DD020008C8
:10015000DD020008DD020008DD020008DD02000803
:10016000DD020008DD0200080000000000000000C1
:10017000000000000000000000000000000000007F
:1001800000000000DD020008000000000000000088
:04019000DD02000884
:1001940082B00D4A136B43F001031363A2F540527E
:1001A400136843F480631360084A536983F020039F
:1001B400536100230193019A054B9A42F4DC019B9D
:1001C40001330193F7E700BF003802400008024002
:1001D4009F860100034AD2F8883043F47003C2F8C2
:1001E4008830704700ED00E0224B9B6803F00C035D
:1001F400042B14D0082B16D01BB11F4B1F4A1A60B6
:1002040002E01D4B1D4A1A601A4B9B68C3F303138B
:100214001B4AD15C184A1368CB4013607047164BD5
:10022400184A1A60F0E7134B59685A6802F03F0203
:1002340011F4800F13D0134BB3FBF2F30D4A526841
:10024400C2F3881202FB03F30A4A5268C2F3014262
:1002540001325200B3FBF2F3074A1360D4E7074BB1
:10026400B3FBF2F3034A5268C2F3881202FB03F3AE
:10027400EAE700BF00380240000000200024F40038
:100284004003000840787D01DFF834D00D480E4962
:100294000E4A002302E0D458C4500433C4188C42DC
:1002A400F9D30B4A0B4C002301E013600432A24241
:1002B400FBD3FFF78FFF00F011F8FFF769FF7047DA
:1002C40000800120000000200400002058030008E2
:1002D4000400002004000020FEE7000070B50D4D6E
:1002E4000D4C641BA4100026A64209D10B4D0C4CE6
:1002F40000F018F8641BA4100026A64205D170BDB6
:1003040055F8043B98470136EEE755F8043B984707
:100314000136F2E7000000000000000000000000C9
:1003240000000000F8B500BFF8BC08BC9E4670474A
:0C033400F8B500BFF8BC08BC9E4670473E
:100340000000000000000000010203040607080985
:0803500000000000010203049B
:040358000024F40089
:040000050800028D60
:00000001FF
