:020000040800F2
:1000000000800120E10300083104000831040008E9
:100010003104000831040008310400080000000029
:100020000000000000000000000000003104000893
:100030003104000800000000310400082502000817
:1000400031040008310400083104000831040008BC
:1000500031040008310400083104000831040008AC
:10006000310400083104000831040008310400089C
:10007000310400083104000831040008310400088C
:1000800031040008310400083104000800000000B9
:100090000000000000000000000000003104000823
:1000A000310400083104000831040008310400085C
:1000B000310400083104000831040008310400084C
:1000C000310400083104000831040008310400083C
:1000D0003104000831040008310400080000000069
:1000E0003104000831040008310400080000000059
:1000F00000000000000000000000000031040008C3
:100100000000000031040008310400083104000838
:1001100000000000000000000000000000000000DF
:1001200031040008310400083104000831040008DB
:100130003104000800000000000000000000000082
:100140000000000000000000000000003104000872
:1001500031040008310400083104000831040008AB
:100160003104000831040008000000000000000015
:10017000000000000000000000000000000000007F
:100180000000000031040008000000000000000032
:04019000310400082E
:100194000E4B5A6C42F010025A641A6B42F0010280
:1001A4001A63A3F560531A6842F420121A605A6A5B
:1001B40042F4EE625A62064B1B68B3FBF0F3054A45
:1001C400936042F20C03D360704700BF00380240D2
:1001D40000000020001001408C46002208E0064B7D
:1001E4001B6813F0800FFAD0815C034B5960013215
:1001F4006245F4D3704700BF00100140002208E0BC
:10020400064B1B6813F0200FFAD0044B5B68835431
:1002140001328A42F4D30020704700BF001001402D
:10022400024A136801331360704700BF04000020C2
:10023400034B1A68024B1B689B1A8342FAD9704716
:100244000400002000B59BB0324B1B68324AA2FB6D
:1002540003239B09013BB3F1807F0AD24FF0E022D4
:1002640053612E4BF02183F823100023936107235D
:1002740013612B4A136B43F004031363294B1A686D
:1002840042F080621A605A6822F400525A60DA68B6
:1002940042F00062DA604FF4E130FFF779FF0024A6
:1002A4000D942E252A4621460EA800F0E5F8009468
:1002B4002A46214601A800F0DFF81A4CA36943F44A
:1002C4000053A3614FF47A70FFF7B2FF32210DA8F7
:1002D400FFF794FFEE460DF1340CBCE80F00AEE8D6
:1002E4000F00BCE80F00AEE80F00BCE80F00AEE85A
:1002F4000F00DCF80030AEF8003032216846FFF71A
:100304006BFFA36943F00053A3614FF47A70FFF7C6
:100314008FFFD2E700000020D34D621000ED00E013
:100324000038024000080240034AD2F8883043F4FF
:100334007003C2F88830704700ED00E0224B9B68E0
:1003440003F00C03042B14D0082B16D01BB11F4B45
:100354001F4A1A6002E01D4B1D4A1A601A4B9B6823
:10036400C3F303131B4AD15C184A1368CB401360D0
:100374007047164B184A1A60F0E7134B59685A68CD
:1003840002F03F0211F4800F13D0134BB3FBF2F3CE
:100394000D4A5268C2F3881202FB03F30A4A5268F8
:1003A400C2F3014201325200B3FBF2F3074A136075
:1003B400D4E7074BB3FBF2F3034A5268C2F3881243
:1003C40002FB03F3EAE700BF00380240000000200C
:1003D4000024F400A404000840787D01DFF834D040
:1003E4000D480E490E4A002302E0D458C450043389
:1003F400C4188C42F9D30B4A0B4C002301E0136060
:100404000432A242FBD3FFF78FFF00F011F8FFF78D
:1004140019FF704700800120000000200400002024
:10042400BC0400080400002008000020FEE70000CF
:1004340070B50D4D0D4C641BA4100026A64209D1C5
:100444000B4D0C4C00F020F8641BA4100026A642AF
:1004540005D170BD55F8043B98470136EEE755F8D1
:10046400043B98470136F2E700000000000000005A
:10047400000000000000000002440346934200D143
:10048400704703F8011BF9E7F8B500BFF8BC08BCD6
:100494009E467047F8B500BFF8BC08BC9E4670473E
:1004A4000000000000000000010203040607080920
:0804B400000000000102030436
:0404BC000024F40024
:04000005080003E10B
:00000001FF
