:020000040800F2
:1000000000800120C98100081982000819820008B7
:1000100019820008198200081982000800000000F7
:10002000000000000000000000000000198200082D
:100030001982000800000000198200087D6900088C
:100040001982000819820008198200081982000824
:1000500019820008198200081982000831810008FD
:100060001982000819820008198200081982000804
:1000700019820008198200081982000819820008F4
:100080001982000819820008198200080000000087
:1000900000000000000000000000000019820008BD
:1000A00019820008198200081982000819820008C4
:1000B00019820008198200081982000819820008B4
:1000C00019820008198200081982000819820008A4
:1000D0001982000819820008198200080000000037
:1000E0001982000819820008198200080000000027
:1000F000000000000000000000000000198200085D
:100100000000000019820008198200081982000806
:1001100000000000000000000000000000000000DF
:100120001982000819820008198200081982000843
:10013000198200080000000000000000000000001C
:10014000000000000000000000000000198200080C
:100150001982000819820008198200081982000813
:100160001982000819820008000000000000000049
:10017000000000000000000000000000000000007F
:1001800000000000198200080000000000000000CC
:0401900019820008C8
:1001A000034613F8012B002AFBD1181A01387047B7
:1001B00001F0FF01102A2BDB10F0070F08D010F818
:1001C000013B013A8B422DD010F0070F42B3F6D11C
:1001D000F0B441EA012141EA014122F007047FF035
:1001E00000070023F0E80256083C85EA010586EA8C
:1001F000010685FA47F5A3FA87F586FA47F6A5FAC8
:1002000087F68EB9EED1F0BC01F0FF0102F00702D3
:1002100032B110F8013B013A83EA010313B1F8D17E
:100220000020704701387047002D06BF354603385F
:10023000073815F0010F07D1013015F4807F02BF98
:10024000013015F4C03F0130F0BC0138704700BFE9
:100250002DE9F04F00238946834601F1100601F194
:10026000010A384885B019469C461D4601E0009DAC
:10027000029916F8017D02EB07143F01D4F80C80B7
:1002800052F807E06768A46888EA03034FEA136836
:100290008EEA050E30F8185087EA0C0C4C404FEAF5
:1002A0000E27CCF307681B0221024FEA0C2C7D407D
:1002B000B245029100978DF80880ADF8005043EAEE
:1002C00014634CEA1E6CD2D199F800100C0102EBB9
:1002D00001114BEA0106251D760702EB05001AD134
:1002E000ABEB00000330062815D914594A68029870
:1002F0008CEA0202CBF80420009A6240CBF800207E
:100300008A685040CA68CBF808005340CBF80C30DC
:1003100005B0BDE8F08F1059009C6040CBF800009C
:100320005259029882EA0C0CCBF804C08A68424009
:10033000CBF80820CA685340CBF80C3005B0BDE8B4
:10034000F08F00BFF89600082DE9F04784B01C46F6
:1003500003AB8A46009300F5835100230393904634
:10036000083153461022DDE90C56074601F0DAF851
:100370008146002840F0BB8007F5805090F8883017
:10038000002B3CD107F5835E0EF1180E032CC644FA
:1003900040F2B9800422AEF10401AB1851F802C05A
:1003A00053F8043C83EA0C038B5013460432944206
:1003B000F3D29C4240F2A380EA5C1EF803104A404C
:1003C0000EF803205A1C944219D9A95C1EF802C0E9
:1003D00081EA0C010EF802109A1C94420FD9A95C14
:1003E0001EF802C0033381EA0C019C420EF8021091
:1003F00005D9EA5C1EF803104A400EF80320032CCE
:10040000C2447ED94FF0040C0AEB0C0205EB0C033E
:1004100052F804EC53F8042C06EB0C038EEA020E9F
:1004200043F804EC63460CF1040C6445ECD29C42A6
:100430001ED9EA5C1AF803104A40F2545A1C94423E
:1004400016D9A95C1AF802C081EA0C01B1549A1CB1
:1004500094420DD9A95C1AF802C0033381EA0C0159
:100460009C42B15404D91AF80320E95C4A40F25482
:1004700090F88830012B03D0484604B0BDE8F087DF
:1004800007F583571837032CB84440D90423A8F143
:100490000401F218C85852F8042C4240CA501D46B4
:1004A00004339C42F5D2AC42E6D9735D18F80520BE
:1004B000534008F805306B1C9C42DDD9F25C18F8FB
:1004C00003104A4008F80320AB1C9C42D4D9F25CCC
:1004D00018F8031003354A40AC4208F80320CBD982
:1004E000735D18F80520534008F80530C4E75046FE
:1004F000102100F04BFD484604B0BDE8F087C2442F
:1005000080E7002393E7002CB6D04B4654E7002544
:10051000C9E700BF41F29002002107F0B1BE00BF61
:100520002DE9F0471D4623F04003802B04468AB096
:100530000846904603D0B5F5807F40F0CD8001227B
:10054000294600F0D7FE0646002800F0C58007794E
:1005500007F01F07102F40F0BF80204600F0F2FE8A
:100560003146204600F00AFF064618B130460AB070
:10057000BDE8F08701232A464146204600F01EFFD1
:1005800006460028F2D103AB009306ABC3E9010095
:1005900006900390D8603A461946204600F0C2FF04
:1005A00006460028E2D104F58052012182F8891024
:1005B000DDE9060104F5056343E90201DDE908010F
:1005C0000022C3E900010023C4E91223C4E9142373
:1005D0004FF007084FF0400E4FEA4E1C0CF1480C4C
:1005E00004EB0C0504ABA868E96803C30BBA5B080D
:1005F00001BA43EAC17349081BBA09BA05930491C9
:100600004FEA0E120DF11009B9E803004832A7189D
:100610004FEA6E0EB860F960E9793B7A43EAC1139C
:100620003B7254F80C00696804AB03C30BBA590859
:1006300003BA41EAC3715B081BBA09BACDE90431B8
:100640000DF1100CBCE80300A0507960E97B5BB2AF
:10065000C90744BF83F01E03DB43B8F10108A3546C
:10066000BAD10727022004F1580904F148084FEADB
:10067000001E0EF1480222444B4608EB0E05D3F84B
:1006800000A0D2F800C08CEA0A0C4EF803C0D3F8E0
:1006900004A0D2F804C00EEB03018CEA0A0CC1F8E6
:1006A00004C0D3F808A0D2F808C08CEA0A0CC1F83C
:1006B00008C0D3F80CA0D2F80CC010338CEA0A0C96
:1006C0009D42C1F80CC0DAD1013F4FEA4000CED1C3
:1006D00030460AB0BDE8F0876FF0130646E700BF6A
:1006E0002DE9F04F8FB000240794002B00F0DA8042
:1006F000814641F2680009EB00081F4641F2780389
:1007000049F80040C8F80440C8F80840C8F80C4050
:1007100049F803404B444FF0000A5C609C60DC6089
:1007200009F580534FF0000B16460C2F09F5825245
:1007300083F88810C2E902ABC2E904AB00F09380F1
:100740004FEA577B4FEAC70A9AFA8AFA9BFA8BFB61
:10075000CDF824A0CDF820B0DDE90801CDE90C01E9
:10076000CDE90A4409F58354CDE9049A09F1480218
:10077000C2460434B846994637464646102E28BF2E
:100780001026B8F1030F6BD904257B19615953F872
:10079000043C4B406351AC460435AE42F5D266454D
:1007A00027D917F80C001AF80C5068400AF80C000A
:1007B0000CF1010086421CD93D5C1AF800E085EA84
:1007C0000E050AF800500CF10200864211D93D5C7A
:1007D0001AF800E00CF1030C85EA0E0566450AF8EC
:1007E000005006D917F80C001AF80C5068400AF8A7
:1007F0000C0099F8890001282BD0B8EB0608374483
:10080000BBD1D04618F0070F4B46DDF814A0DDF839
:1008100010903CD141F2700109EB010459F801201C
:1008200082EA0B00626849F8010082EA0A0262600B
:1008300093F88930012B23D007AA09F5825300923F
:10084000183310224146484600F06CFE0FB0BDE858
:10085000F08F514650460392FFF7FAFC039ACCE71B
:100860004FF0000C9DE772683468B16849F80040A9
:10087000C8F804200122C8F8081083F87720DBE7C5
:1008800009F1480241464046FFF7E2FCD4E71A6FFF
:1008900082EA0B0B5A6FC3F870B082EA0A0AC3F8F7
:1008A00074A0C5E76FF01300D0E700BF2DE9F84F43
:1008B00041F2500300EB03090646C0588846D9F8B8
:1008C0000410831851F1000117462CBF01220022A9
:1008D0000C46002A40F00781490F40F0048110F0D7
:1008E0000F0040F09C8041F250020F2FB350C9F826
:1008F00004404DD906F5835B0BF1180B4546B9460C
:1009000006F5805406F1480A2968A26FE36FD4F80F
:1009100080C04A40A2676A685340E367AA68D4F877
:1009200084308CEA020CC4F880C0E96894F889200D
:100930004B40012AC4F8843063D0A9F110030F2B77
:1009400005F110051CD9A9F1200323F00F03103382
:100950002B442A68A16F4A40A2676A68E16F4A4047
:10096000E267AA68D4F880104A40C4F88020EA6898
:10097000D4F8841010354A409D42C4F88420E8D150
:10098000A7F1100323F00F03103307F00F0798446B
:10099000A7B306F58354032F04F1180440F2A18095
:1009A00006F583560423143608EB0302F05852F878
:1009B000042C4240F250194604339F42F4D28F4235
:1009C0001CD918F80130625C534063544B1C9F42A1
:1009D00014D918F80320E05C4240E2548B1CBB425F
:1009E0000CD218F80320E05C033142408F42E254FD
:1009F00004D918F80130625C534063540020BDE80C
:100A0000F88F524659465846A9F11009FFF720FCC5
:100A1000B9F10F0F05F110053FF676AFB0E7C0F161
:100A20001005BD4228BF3D4606F583511831032D00
:100A300001EB000E0FD90423AEF1040408EB03020E
:100A400054F803C052F8042C82EA0C02E2501A4611
:100A500004339D42F2D2954226D918F802301EF88E
:100A6000024063400EF80230531C9D421CD918F816
:100A700003401EF803C084EA0C040EF80340931CE4
:100A80009D4211D918F803401EF803C0033284EACE
:100A90000C0495420EF8034006D918F802301EF8EF
:100AA000024063400EF80230284410280DD041F275
:100AB0005003D9F80420F3587F1BEB1842F10002D1
:100AC000DB19A84442F100040DE706F5805494F8C0
:100AD0008930012BEBD106F148020846FFF7B8FB3D
:100AE000E5E700216DE76FF0130088E72DE9F04F8F
:100AF00087B01E46109F00239742CDE90233CDE90F
:100B00000433C0F0CE80119B14461A60002A50D0E6
:100B1000B14280460D4650D308F5825A0AF1100AB8
:100B20005AE9023113EB040C51F100074FF0000EAB
:100B300028BF4FF0010E62463846BEF1000F3FD18C
:100B40006FF01F094FF00F0EE1457EEB070737D31B
:100B500053EA010737D013F00F0700F08E80C7F17A
:100B6000100BA34528BFA3460DF10809CDE9005697
:100B70005B463A4649464046FFF7E6FBD0B95F443C
:100B8000102F7ED05AF8082C5AF8040CA4EB0B0452
:100B90005D445E441BEB020B40F100001BEB0402C2
:100BA00040F1000017E0002C55D11021484600F01C
:100BB000EDF9002007B0BDE8F08F731A9342ABD275
:100BC0006FF01300F6E741F2500358F803301B07AB
:100BD00030D10DF108090F2C4AE90220E3D908F5BC
:100BE000835A0AF1180A08F5805701E00F2CDAD968
:100BF000D7F874C001969CFA8CFC0CF1010C9CFA9D
:100C00008CFC0095102300224946C7F874C040466A
:100C1000FFF79AFB103C103510360028CAD197F820
:100C20008930012BE2D108F1480251465046FFF7C6
:100C30000FFBDBE708F5805797F88930012BC8D107
:100C400008F583511831084608F14802FFF700FB08
:100C50005AE902317FE7CDE9005608F58055234671
:100C60006C6F24BA013424BA0022494640466C67AE
:100C7000FFF76AFB002898D09CE7E21841F10000DA
:100C8000A7E708F5805797F88930012B7FF47AAFF2
:100C900008F58351183108F148020846FFF7D8FAE1
:100CA00070E76FF0150085E72DE9F04F41F2500233
:100CB000054605EB020A0020A95818605AF8040CF2
:100CC0005AF8082CDAF804704FEAC00987B0FF0020
:100CD00049EA52794FEAC20B0243DDE9104647EA7E
:100CE00051774FEAC10340F09F80080706D005F511
:100CF000805898F88920012A00F08C80321F0C2A35
:100D0000019200F2CC8005F582511831324620461E
:100D1000009307F0A7FA009B49EA07014BEA030298
:100D20000A4373D005F5835A6A073FBA1BBA99FA8A
:100D300089F99BFA8BFB0AF1180A40F0978005F5B8
:100D4000845205F5805852F8081C4F4052F8041C94
:100D500042F8087C4B4042F8043C136883EA0903DC
:100D60001360536883EA0B03536098F88930012BB2
:100D700075D02368D8F87820072E83EA0203236011
:100D80001CD96368D8F87C200B2E83EA02036360C9
:100D900014D9A368D8F880200F2E83EA0203A36039
:100DA0000CD9E368D8F88420132E83EA0203E360A9
:100DB00004D9D8F88820236953402361019B721C11
:100DC000042A23F0030303F1040398BF04239E4283
:100DD0001CD91AF80320E15C4A40E2545A1C96429E
:100DE00014D91AF80210A05C4140A1549A1C9642F2
:100DF0000CD91AF80210A05C033341409E42A15462
:100E000004D91AF80320E15C4A40E254002007B0FC
:100E1000BDE8F08F05F58351183105F14802084609
:100E20000093FFF715FA009B321F0C2A019236D867
:100E30005AF8082C11073FF466AF05F5805898F86A
:100E40008920012A7FF45FAF05F58351183105F140
:100E5000480208460093FFF7FBF9009B53E705F1B2
:100E6000480251465046FFF7F3F982E705F58058EE
:100E7000D8F878205740D8F87C20C8F878705340CC
:100E8000C8F87C30D8F8803083EA0909D8F8843073
:100E9000C8F8809083EA0B0BC8F884B065E76FF060
:100EA0001300B4E770B584B015461A46089B044693
:100EB000FFF716FC08B104B070BDDDE90912204649
:100EC000FFF7F4FC0028F6D103AECDE900560C9BE9
:100ED0000B992A462046FFF709FE0028EBD10D9B0F
:100EE00001930E9B00930246014633462046FFF7CE
:100EF000DBFE04B070BD00BFF0B50D4689B0002127
:100F00000446FFF7EDFB024610B1104609B0F0BDF4
:100F1000DDE90E122046FFF7C9FC02460028F4D195
:100F200003AF2A46CDE90057139B12992046FFF7DD
:100F3000DDFD02460028E8D1119B04AECDE9006337
:100F400011463B462046FFF7AFFE02460028DCD1A3
:100F5000119A1098314600F073FF02460028D4D051
:100F60001398294600F012F86FF01102CDE700BF88
:100F700050B110B5044600F0E5F9204641F2900169
:100F8000BDE8104000F002B8704700BF39B1044B13
:100F900010B50A461B6800210446984710BD7047EB
:100FA0000000002010B5044628B121B1044B0A46C8
:100FB0001B68002198472046BDE8104007F04CBD53
:100FC0000000002038B50C4608F0A2FAB0B1234664
:100FD00000F12005D0F800C041688268D0F80CE02C
:100FE000C3F80CE01030A842C3F800C059609A6002
:100FF00003F11003EED102681A60204638BD00BF2D
:10100000891A0ED0002300B59C465FFA81FE013399
:101010008444DBB28B420CF802E09C46F7D35DF8C7
:1010200004FB704700283ED0002A3CD0F0B543189E
:1010300013F8015C002D34D08D4232D84E1B16605F
:101040002B460A4692EA0304D21AA24323401A43CB
:10105000D217AE4600273B4683EA0E035C42234389
:10106000DB17441E62EA030E38460246334692EA14
:101070000307D21ABA433B401A43D21714F8013F70
:10108000AC4683EA0C035F423B43DB17013023EAA3
:10109000020381424EEA030EE7D80EF4C4404042F8
:1010A000F0BD0248F0BD0248704700BF009EFFFF40
:1010B000009FFFFF891A8023012983540ED9012341
:1010C00000B59C464FF0000E01338444DBB28B42E6
:1010D0000CF802E09C46F7D35DF804FB704700BFB4
:1010E000002837D0002A35D02DE9F0434FF0FF35E6
:1010F0002E460024B1F1010C146026D400EB010E41
:101100004FF080091EF8011D4B421943C91701EA2F
:101110000600034667461F40DB4323403B43136002
:101120001C469EF80030C84683EA08035F423B43F2
:10113000DB170340C043284018430CF1FF3CBCF1CF
:10114000FF3F054626EA0106DCD105F4C4404042D3
:10115000BDE8F08300487047009FFFFF10B5A1EB8A
:10116000020EBEF1010F0CD9012302F1FF3C002455
:101170001A4601330244DBB2734502F80C401A46AA
:10118000F7D3084400F801EC10BD00BF002837D0A9
:10119000002A35D0F0B54E1E0D46835DCC1A146082
:1011A0001A4695EA0207AD1ABD433A401543ED17BA
:1011B0001A46002353405A421343DB1765EA030CD7
:1011C000D6B1A1F1020E8644411EC0F101004318C0
:1011D0001A46234692EA0305D21AAA432B401A4321
:1011E000D21711F8013F5D422B43DB1723EA0203BC
:1011F00071454CEA030CEAD10CF4C4404042F0BD06
:1012000000487047009FFFFF70B50024A446E8B176
:10121000E2B11460C1B100EB010E25460E461EF886
:10122000013D01392846434058420343DB1723EA76
:101230000C004CEA030C03461E40DB4323403343BF
:101240001C4613600029E9D1002070BD004870BD24
:10125000009FFFFF18B112B11160002070470148D4
:10126000704700BF009FFFFF134618448A1A0021F1
:1012700007F006B8094803686BB9094A09491378A9
:101280002BB141F8043B12F8083F002BF9D10022A2
:1012900001230A6003600348704700BFC4000020B8
:1012A000F8980008C8000020074B5A6852B108336C
:1012B00002E053F8042C2AB113F8081C814203F110
:1012C0000803F6D110467047F898000870B5064636
:1012D00060B1074C05E028683146083404F01AFF75
:1012E00010B16568002DF6D1284670BD0546FBE7B4
:1012F000F89800080F4B30B55C68C4B10E4D9C46A1
:1013000002E0DCF8044094B1E379C3F384030CF108
:10131000080C55F823301B788342F2D1637903F02F
:101320000F0EB1EB8E1FECD1B2EB131FE9D12046AB
:1013300030BD00BFF89800080400002044220021BE
:1013400006F09EBFB8B110B50446006C10B1242160
:10135000FFF728FEE06B40B12368074ADB79C3F34F
:10136000840352F823309B6A984720464421BDE805
:101370001040FFF70BBE704704000020A1B138B544
:101380000C4644220021054606F07AFFE379094A1B
:10139000C3F3840352F823305B6A13B19847E863C0
:1013A00020B12C60002038BD03487047A0F5C34031
:1013B00038BD00BF04000020009FFFFF10B4DCB266
:1013C000012C31D804687CB394F807C01CF0020FDC
:1013D00023D0012B4260037214D0637903F0F00C28
:1013E000BCF1300F0ED003F0E003402B0AD0E379BC
:1013F0000F4CC06BC3F3840354F823305DF8044BE7
:101400001B6A1847E3790A4CC06BC3F3840354F892
:1014100023305DF8044BDB69184794F805C00CF0E5
:101420000F0CB2EB8C1FD4D002485DF8044B704710
:1014300004000020009FFFFF0368002B4FD0102AFC
:101440002DE9F041144648D8DA79D20705460F460F
:1014500011D41A795209B4EB820F4FEA82063AD3BB
:101460005B7903F0F003602B0BD0902B1CD08EB96E
:101470003046BDE8F0815B7903F0F003602B26462F
:10148000F3D195F90810E86B23463A46BDE8F041E0
:10149000FFF726B93246394605F1280006F0E2FE8C
:1014A000AE630020BDE8F0810023E86B1A461946C0
:1014B00004F0C4F90028DCD195F908304BB1012BB8
:1014C00009D10321E86B23463A46BDE8F04104F018
:1014D00083B90221F6E70348CBE70348C9E701488F
:1014E000704700BF009FFFFF809FFFFF03681BB195
:1014F000002343621846704700487047009FFFFF73
:1015000003684BB15B7903F0F003602B02D1C06B31
:10151000FFF7CCB90148704701487047809FFFFF33
:10152000009FFFFF2DE9F04FD0F800C087B0DDF835
:101530004090BCF1000F77D09CF804600446002076
:10154000C9F8000016F01F00059000F040819CF8DB
:10155000050000F0F00010280F4615462FD0602837
:1015600000F0AB80902800F0AF809942984652D0AE
:1015700020283BD0302872D0402857D0502800F087
:101580000D81A02840F02781636A002B40F0238161
:101590009CF80730914ACDF80480C3F38403009788
:1015A00052F8232094F908109669E06B04F128039F
:1015B0002A46B04700284DD007B0BDE8F08F059A05
:1015C000954240F006819CF807108448C9F8005005
:1015D000C1F384013A4650F8210094F90810456897
:1015E000E06BAC4607B0BDE8F04F604794F90830B7
:1015F000002B4CD0012BD4F824A004D1059BA3EBE5
:101600000A03AB424DD8BAF1000F40F09980002D8B
:1016100061D10020D0E7636A33B9059AB5FBF2F3D4
:1016200002FB1353002BA3D06D48C5E79CF807308D
:101630006A4ACDF80480C3F38403009752F823204C
:10164000E06B166904F1280304F124022946B0472F
:101650000028B1D1C9F8005007B0BDE8F08F9CF860
:101660000730CDF8088004F128020092C3F3840308
:101670005A4A019752F8233094F90810DE68E06B5B
:1016800004F124032A46B047002895D1E2E7E36835
:10169000D4F824A0002BB1D0059BA3EB0A03AB42E6
:1016A000B1D30AF114002A463946204406F0DAFD87
:1016B000636A2B44002063627EE7CDF80490E06B00
:1016C0000092FFF713FA77E7CDF80490E06B0092F1
:1016D00004F0C2F970E7059AB5FBF2FA02FB1A5A58
:1016E000BAF1000F05D194F9081089B9E3687BB10C
:1016F0009246A5EB0A055246791904F1140006F04A
:10170000B1FD636A53446362002D82D094F90810DE
:101710002368324ADB79CDE90078C3F38403E06BB8
:1017200052F823302A469E6804F12803B047002867
:101730007FF442AFD9F800302B44C9F800303BE7C2
:10174000059B0AF11400A3EB0A0B5A4639462044C4
:1017500006F088FD2246214952F8143BDB790092BD
:10176000C3F38403059A51F82330CDF804809B68B5
:1017700094F90810E06B1E4604F12803B0470028D6
:101780007FF41AAF059AD9F80030AD1A1344C9F89E
:1017900000305F4455449044606238E79CF807305D
:1017A000CDF8088004F114020092C3F384030B4ABD
:1017B000019752F82330E06B5E6904F1240204F1D2
:1017C00028032946B04700287FF4F6AE42E70548D3
:1017D000F2E60548F0E60548EEE600BF040000200A
:1017E000009FFFFF809CFFFF809DFFFF809FFFFF0A
:1017F0002DE9F041076882B0002F7ED07B79044646
:1018000000201546106003F0F002202A0E461BD07F
:1018100003F0B001302914D003F0E003402B10D0C6
:10182000602A0ED0902A0CD0A02A0AD0BB794C3B5B
:10183000012B06D9102A41D1636A3248002B08BF18
:10184000002002B0BDE8F0812369002B55D0BB79A0
:101850004C3B012BF5D994F90810012932D03A7983
:10186000636A02F01F02934207D0E2682548002A0B
:10187000E7D1002B08BF0020E3E704F11408FB794F
:101880002148CDF80080C3F38403019650F823303B
:10189000E06B9F6804F12803B8470028D1D194F980
:1018A00008301BBB2168236911B1097901F01F01C0
:1018B0002A46304602B0BDE8F0411847202ACAD077
:1018C0001248BEE7E368002BB6D0A16B04F1140800
:1018D00011B9397949098900626A404698472768F1
:1018E00094F908103A7902F01F02C8E7236833B16F
:1018F0001B7903F01F032B60A3E70548A1E703460C
:10190000F9E700BF809DFFFF04000020809FFFFFDC
:10191000009FFFFF03684BB35B7903F0F003202BBC
:1019200024D1042924D8DFE801F0090F151B030096
:10193000104A0023C0E90332184670470E4A0F4B85
:10194000C0E90323002070470D4A0E4BC0E9032372
:10195000002070470C4A0D4BC0E90323002070475C
:101960000B4A0C4BC0E90323002070470A4870471C
:101970000A48704755120008011000082510000899
:10198000B5100008E11000085D1100088D11000875
:101990006912000809120008009FFFFF809FFFFFE7
:1019A0000368D3B110B5144690F90820012A84B019
:1019B00011D15B7903F0F003602B09D10022C06BD9
:1019C00003ABCDE900141146FFF76EF904B010BD6A
:1019D000034804B010BD0348F8E70248704700BF51
:1019E000809FFFFF009FFFFFF0B5036889B053B1F0
:1019F000144690F9082032B95B7903F0F003602BAC
:101A00001BD1102C03D9114D284609B0F0BD04AFED
:101A1000C06B0E46CDE9007403AB1146FFF744F9E5
:101A200005460028F0D122463946304600F008FA33
:101A3000074B051E18BF1D4601E0064D04AF384692
:101A40002146FFF7A3FA284609B0F0BD009FFFFF2B
:101A5000009DFFFF809FFFFF2DE9F0431F4685B0EB
:101A600003680E9D002B43D0102A164661D8DA7900
:101A7000D2070446884629D419794909B6EB810F63
:101A80004FEA810934D35B7903F0F003602B23D054
:101A9000902B38D0B9F1000F2CD100236362394666
:101AA000DDE90C2300952046FFF73CFD58B9296875
:101AB0000D9B03AA19442046FFF79AFE18B92B681C
:101AC000039A13442B6005B0BDE8F0835B7903F003
:101AD000F003602BB146DBD194F90810E06B33467C
:101AE0004246FEF7FDFD0028EDD12368002BD4D13E
:101AF0001148E8E741464A4604F1280006F0B2FBE7
:101B0000C4F83890C9E70023E06B1A46194603F081
:101B100095FE0028D7D194F9083043B1012BE7D1C5
:101B20000321E06B3346424603F056FEDBE7022119
:101B3000F7E70248C7E700BF009FFFFF809FFFFF56
:101B40002DE9F04188B0DDE91275109C149EDDF896
:101B5000448004EB060CBC4536D8076897F805C0EE
:101B60000CF0F00CBCF1600F08EB040E19D0BCF1C6
:101B7000800F14D1CDE9038E00930F9BC06B2C60B6
:101B800002930E9B0193059613460A46214604F0E4
:101B900053F92B6833442B6008B0BDE8F0810B4843
:101BA000F7E7CDE90023CDF818E00F9BCDF81080C2
:101BB000C06B2C6003930E9B029305960B46224646
:101BC0000121FFF76FF9E4E70148E5E7809FFFFF98
:101BD000009FFFFF70B586B0DDE90B64109DAC423D
:101BE0003FD396460E9A641B94423AD8026892F804
:101BF00005C00CF0F00CBCF1600F06EB040217D02E
:101C0000BCF1800F2AD1CDE904250F9A0296C06B52
:101C100014600D9A03920A9ACDE900320A4673467F
:101C2000214604F0F9F910F10F0F14D006B070BD81
:101C3000CDE9035602920F9AC06B14600D9A05927B
:101C40000A9ACDE900320A4673462146FFF754F955
:101C500010F1120FEAD1044806B070BD034806B077
:101C600070BD0348E2E700BF009DFFFF809FFFFFBC
:101C7000009FFFFF10B54FF40C71012007F040FCEE
:101C8000044608B100F04EFB204610BD01F054B8E8
:101C900001F02EB830B4DDE9024521B1012902D0AE
:101CA000034830BC7047CDE9024530BC01F072BD3D
:101CB000009FFFFF10B50446FFF75AF92046BDE824
:101CC000104006F0C9BE00BF10B541F290010120DE
:101CD00007F016FC044608B1FEF71CFC204610BDB8
:101CE00013460A460521FEF71BBC00BF13460A46F1
:101CF0000621FEF715BC00BF13460A460221FEF777
:101D00000FBC00BF10B5044603F058FD2046BDE8E7
:101D1000104006F0A1BE00BF10B58021012007F0E1
:101D2000EFFB044608B103F01DFD204610BD00BFC7
:101D300013460A46052103F019BD00BF13460A46A3
:101D4000062103F013BD00BF13460A46022103F02B
:101D50000DBD00BF10B5044602F07AFE2046BDE876
:101D6000104006F079BE00BF10B54FF48A71012013
:101D700007F0C6FB044608B102F064FE204610BD21
:101D800003F0F4B902F06ABE03F0B0BB03F050BB3D
:101D900003F0D2BA03F048BA10B5044602F0A8FC2A
:101DA0002046BDE8104006F057BE00BF10B54FF406
:101DB0008A71012007F0A4FB044608B102F092FCEE
:101DC000204610BD02F0C6BA02F0B8B802F06CBDF1
:101DD00002F00EBD02F092BC11461A4602F024BB7E
:101DE00010B5044600F098FA2046BDE8104006F011
:101DF00033BE00BF10B54FF48C71012007F080FB9B
:101E0000044608B100F082FA204610BD00F064BE1E
:101E100000F0A8BA01F054BF01F026BF01F074BE73
:101E200001F030BC01F01ABC40B110B5044600F01E
:101E300089FA2046BDE8104006F00EBE704700BF8C
:101E4000032A70B53AD904230024061F0D1F06EBA0
:101E5000030CDCF800E005EB030CDCF800C08CEAB6
:101E60000E0C9E4604339A4244EA0C04EFD27245AB
:101E700020D910F80E5011F80E306B401C430EF1B3
:101E80000103934216D2C55CCB5C6B401C430EF140
:101E900002039A420ED9C55CCB5C0EF1030E6B4077
:101EA000724544EA030405D910F80E3011F80E20EB
:101EB00053401C43A0B240EA144070BD0024A64623
:101EC000D5E700BFF0B5059F0546002B08BF0B46C0
:101ED000032F6FEA05054CD94FF0040C02EB0C06FA
:101EE00003EB0C0456F804EC54F8044C0EEA000E14
:101EF0002C4001EB0C064EEA040E64460CF1040C77
:101F0000674546F804ECE9D2A74231D91E5D12F8C4
:101F100004C02E4000EA0C0C46EA0C0604F1010C49
:101F200067450E55EDB2C0B222D913F80C6012F815
:101F30000CE02E4000EA0E0E46EA0E0601F80C6098
:101F400004F1020C674513D912F80C6013F80CE089
:101F50000334064005EA0E0E46EA0E06BC4201F8BE
:101F60000C6005D2125D1B5D10401D4028430855D2
:101F7000F0BD0024C8E700BF2DE9F047DDE908986F
:101F80004B455FD8CF18051F1C4611464C40614297
:101F90000C43E417E4432646B8F1030F6FEA060644
:101FA00052D9042101EB070C55F801E05CF804CC90
:101FB0000EEA060E0CEA040C4CEA0E0C45F801C0C1
:101FC0008C4604318845EDD2E04536D917F80CA08F
:101FD000E1B204EA0A0410F80CA05FFA86FE06EAF1
:101FE0000A0634430CF10106B04500F80C4024D930
:101FF000BC5D10F806A00C400EEA0A0A44EA0A0486
:1020000084550CF10206B04517D9BC5D10F806A046
:102010000CF1030C0C400EEA0A0A44EA0A04E045FB
:1020200084550AD917F80C40214010F80C400EEAEC
:10203000040E41EA0E0100F80C100133994507F136
:102040000107A1D2BDE8F0874FF0000CBCE700BF4C
:102050002DE9F04FADF5057D01220DF588790023BE
:102060008DF81020032289F8013004A80DF20F1416
:1020700011464B005BB2002A00F8011F83F01B01E0
:10208000C0F232815A408442D1B2F2D10320012100
:10209000024643005BB2002A09F8001083F01B00DF
:1020A000C0F21A8101315A40B1F5807FD0B2F0D12F
:1020B000904E02230124C6E9004304220823C6E906
:1020C0000223102120234020C6E904138023C6E9FF
:1020D00006031B253623C6E90853632386F82830F8
:1020E00006F12800002386F88B314F46054617F885
:1020F000013F04AAC3F1FF03D25CD30943EA4203C0
:10210000D9B2C3F3C01343EA41035FFA83FCC3F3BC
:10211000C01343EA4C035FFA83FEC3F3C01343EAE0
:102120004E035BB253404B408CEA030C8EEA0C0C1E
:102130005FFA8CFC8CF0630C06EB0C0305F801CF06
:1021400083F828410134B4F5807FD0D199F80E305E
:102150000093694BC6F8283203F13E4303F5C543AB
:102160005F33C6F8283603F5C50303F5BD433E3398
:10217000C6F8283A03F1C54303F5BD0303F57853C8
:102180005E4AC6F8283E99F80930019399F80BB0D9
:1021900099F80D30029302F5806502F5006402F5AE
:1021A000406100F1FF0610F8017F17F0800F47F340
:1021B000060314BF4FF01B0C4FF0000C8CEA430CCD
:1021C0003B045FFA8CFC43EA072383EA0C0387EAAB
:1021D0000C0743EA07634FEA336742F8043F45F8C8
:1021E000047F86424FEA33474FEA332344F8047FA3
:1021F00041F8043FD7D1424C4249434FCDF80CB08F
:1022000004F5806604F5006504F5406E01F5807AFA
:1022100011F8013F002B51D019F80320029BD01870
:10222000019B02EB0308A7FB00C3DB09C3EB0323FD
:10223000C31A04A85145C35C009800EB020C039834
:102240000244A7FB08B04FEAD010C0EB0020A8EB77
:1022500000000DF110084FEA034318F8000043EAAC
:102260000023A7FB0C804FEAD010C0EB0020ACEBA2
:1022700000000DF1100C1CF8000083EA0003A7FB1E
:1022800002C04FEAD010C0EB0020A2EB000004AA6D
:10229000125C43EA02634FEA336244F8043F46F8B3
:1022A000042F4FEA33424FEA332345F8042F4EF808
:1022B000043FADD10DF5057DBDE8F08F514544F8E3
:1022C000043F46F8043F45F8043F4EF8043F9FD1D1
:1022D0000DF5057DBDE8F08F01314240B1F5807FFD
:1022E000D0B27FF4D6AEE3E64A408442D1B27FF466
:1022F000C0AECBE6DC010020C66363A50404002069
:102300000014002003030020818080804FF48C7231
:10231000002105F0B5BF00BF18B14FF48C71FEF776
:1023200035BE704710B54FF48C720021044605F09D
:10233000A7FF4FF48C72A0180021BDE8104005F0F3
:102340009FBF00BF60B110B54FF48C710446FEF71B
:102350001DFE4FF48C716018BDE81040FEF716BEEC
:10236000704700BFC02A2DE9F84F904607460E4639
:1023700008D0B2F5807F59D0802A47D06FF01F0077
:10238000BDE8F88F0C230360E34CA56B002D43D010
:10239000002407F108037C604FEA5812F4431C4400
:1023A00043EA0605062CC5F3020594BF0024012468
:1023B000002D18BF0024002C00F07E830C2A40F270
:1023C0007B83002A08BF0122550803EBC505A6F14F
:1023D00008049C4694ED027BACEC027BAC4504F116
:1023E0000804F7D122F00104944203D056F82420C7
:1023F00043F824203A680C2A1BD00E2A00F0908162
:102400000A2A00F0EC810020BDE8F88FC24CA56BD1
:102410000A230360002DBBD1FFF71AFE0123A3633B
:102420007D604FEA581207F10803B7E70E230360F7
:10243000AAE75C69B94A1868156859689F68DE6838
:10244000D3F810A0C4F3072C944468409CF828C02B
:1024500080EA0C0002EB146C9CF828C080EA0C4067
:1024600052FA84FC9CF828C080EA0C60C4F3074C44
:1024700094449CF828C080EA0C20414087EA01057A
:1024800086EA050CC3E9085C8AEA0C056C40C3E9DE
:102490000601C3E90A54C4F307251544966895F864
:1024A00028E05568684002EB14658EEA000095F854
:1024B000285080EA054052FA84F595F8285080EAC1
:1024C0000560C4F30745154495F8288080EA08287C
:1024D00087EA08058AEA050784EA070081EA080115
:1024E000C3E90C81C0F3072E8CEA050996449D636D
:1024F0001F645864C3F83C909EF828E088EA0608F8
:102500008EEA080E02EB106898F828808EEA084ED2
:1025100052FA80F8C0F30740104498F8288090F8E9
:102520002800D6688EEA086E8EEA002E81EA0E0137
:102530008CEA010C84EA0C0087EA0C07C3E912E17B
:102540009F65C0F3072785EA01081744C3F854C004
:10255000D865C3F8508097F828708EEA060E87EA8F
:102560000E0702EB106E16699EF828E087EA0E4708
:1025700052FA80FE9EF828E087EA0E67C0F3074E05
:1025800096449EF828E087EA0E278AEA070A80EA3E
:102590000A007940C3E91871C3E91CA07D40C0F36B
:1025A000072E8CEA050896449D66C3F86C809EF859
:1025B00028E077408EEA070702EB106E56699EF816
:1025C00028E087EA0E4752FA80FEC0F307409EF8E3
:1025D00028E0104487EA0E6790F828E087EA0E2E7C
:1025E00081EA0E014C408CEA0107C3E91EE185EA4D
:1025F000010CC4F30720C3F880C010448AEA070C1A
:10260000C3F88470C3F88C40C3F888C090F82800E1
:102610008EEA060C80EA0C0002EB146C9CF828C0D1
:1026200080EA0C4052FA84FC9CF828C0966980EA43
:102630000C60C4F3074C94449CF8288080EA082876
:1026400085EA08058AEA050C81EA080084EA0C019B
:10265000C3E92480C1F3072E87EA05099644C3F82D
:102660009850C3F8A0C0C3F8A410C3F89C909EF87B
:1026700028E088EA06088EEA080E02EB1168D6699F
:1026800098F828808EEA084E52FA81F8C1F3074183
:10269000114498F8288091F828108EEA086E8EEA86
:1026A000012E80EA0E0047407C408CEA0701C3E916
:1026B0002AE0C3F8B810C4F3072185EA000C1144DE
:1026C000C3F8B470C3F8BC40C3F8B0C002EB146CDC
:1026D00091F828109CF828C08EEA060E81EA0E01B7
:1026E00081EA0C4152FA84FC9CF828C081EA0C6112
:1026F000C4F3074C624492F8282081EA0222554034
:102700008AEA020650406F407440C3E93020C3E9B2
:102710003257C3E9346476E6CC230020DC01002084
:10272000DFF8B083DC691868D3E905CED3E903513B
:10273000D3E9016708F11C0908F10402C4F3072A70
:10274000924458F804BF9AF828A080EA0B008AEA5D
:10275000000002EB146AC1459AF828A080EA0A40FA
:1027600052FA84FA9AF828A080EA0A60C4F3074A69
:1027700092449AF828A080EA0A2086EA000687EAAE
:10278000060785EA0705C3E90806C3E90A7552FA90
:1027900085FA9AF828A08AEA010102EB156A9AF8EC
:1027A00028A081EA0A61C5F3072A92449AF828A072
:1027B00081EA0A21C5F3074A92449AF828A081EADF
:1027C0000A418CEA010C8EEA0C0E84EA0E04C3E97D
:1027D0000C1CC3E90EE403F12003AFD113E6DC685F
:1027E000BB4A1F681668C4F3072111447E4091F864
:1027F0002850754002EB1466D3E9011096F8286062
:1028000085EA064552FA84F696F8286085EA066558
:10281000C4F30746164496F8286085EA062585EA3B
:10282000010686EA000787EA0401C3E90456C3E902
:102830000671C1F307241444576894F828407D407A
:102840006C4002EB116595F8285084EA054452FA71
:1028500081F595F8285084EA0564C1F307451544CD
:1028600095F8285084EA0524604080EA0107664014
:10287000C3E90846C7F3072515449862DF6295F857
:1028800028C095686C4002EB176584EA0C0495F843
:10289000285084EA054552FA87F4C7F3074C94F8A8
:1028A0002840944485EA04659CF8284085EA04257C
:1028B0006E407140C3E90C56C1F3072480EA060755
:1028C0001444D9639F6394F82840D76802EB116CD5
:1028D0007D406C409CF8285084EA054452FA81F50A
:1028E00095F8285084EA0564C1F30745154495F826
:1028F000285084EA0524604081EA00076640C3E965
:102900001046C7F3072515449864DF6495F828C07E
:1029100015696C4002EB176584EA0C0495F82850A1
:1029200084EA054552FA87F4C7F3074C94F8284027
:10293000944485EA04659CF8284085EA04256E40A5
:102940007140C3E91456C1F3072480EA0607144412
:10295000D9659F65576994F828407D406C4002EB2B
:10296000116595F8285084EA054452FA81F595F8E6
:10297000285084EA0564C1F30745154495F82850AA
:1029800084EA0524604081EA00076640C3E91846EE
:10299000C7F3072515449866DF6695F828C0956942
:1029A0006C4002EB176584EA0C0495F8285084EA21
:1029B000054552FA87F4C7F3074C94F8284094442D
:1029C00085EA04659CF8284085EA04256E4071403C
:1029D000C1F3072480EA06071444C3E91C56D967EB
:1029E0009F67D76994F828407D406C4002EB1165E1
:1029F00095F8285084EA054452FA81F595F8285054
:102A000084EA0564C1F30745154495F8285084EA23
:102A10000524604081EA00076640C3E92046C7F309
:102A200007251544C3F88800C3F88C7095F828C0B2
:102A3000156A6C4002EB176584EA0C0495F828507F
:102A400084EA054452FA87F5C7F3074C95F82850F5
:102A5000944484EA05649CF8285084EA052466407E
:102A60007140C3E92446C1F3072580EA06071544EF
:102A7000C3F89C10C3F89870576A95F828507C40AA
:102A80006C4002EB116595F8285084EA054452FA2F
:102A900081F595F8285084EA0564C1F307452A4476
:102AA00092F8282084EA0222504056404140C3E96F
:102AB0002826C3E92A01A6E431461D1F002401345B
:102AC00051F8046B45F8046FA242F8D892E400BFB5
:102AD000DC010020D80100202DE9F04FC7B00546E9
:102AE00016460C464FF48C720021684605F0C8FB70
:102AF00000236B60324621466846FFF733FC0746E9
:102B0000002840F0E880DDF80080019B02AA03EB7A
:102B1000880302EB8304A94652F8233049F8188B46
:102B2000AB606368EB6008F1FF3BA3682B61BBF10E
:102B3000000FE3686B61A4F1100A5E4640F3BB80AE
:102B4000694A6A4B203C05F1280ED4E9040153FA86
:102B500080F503EB106C95F828509CF828C002EB28
:102B6000850502EB8C0CD5F83051DCF830CD85EAC8
:102B70000C05C0F3072C9C44C0F3074018449CF894
:102B800028C090F8280002EB8C0C02EB8000DCF8E7
:102B900030C5D0F8300985EA0C0545404EF8105C88
:102BA00053FA81F003EB116590F8280095F828504E
:102BB00002EB800002EB8505D0F83001D5F8305DDE
:102BC0006840C1F307251D44C1F30741194495F836
:102BD000285091F8281002EB850502EB8101D5F809
:102BE0003055D1F83019684048404EF80C0CD4E903
:102BF000060153FA80F503EB106C95F828509CF809
:102C000028C002EB850502EB8C0CD5F83051DCF8BE
:102C100030CD85EA0C05C0F3072C9C44C0F3074077
:102C200018449CF828C090F8280002EB8C0C02EBAA
:102C30008000DCF830C5D0F8300985EA0C05454045
:102C400053FA81F04EF8085C90F8285003EB1160BD
:102C500002EB850590F82800D5F8305102EB800092
:102C6000013ED0F8300D85EA000CC1F307251D4464
:102C7000C1F3074195F828501944A4F1100491F8C4
:102C8000280002EB850102EB8000D1F830158CEAB8
:102C9000010CD0F830198CEA01014EF8041C0EF139
:102CA000100E7FF452AFC8EB08780AEB081A09EB54
:102CB0000B190AF1100ADAF80430C9F80430DAF80E
:102CC0000830C9F80830DAF80C30C9F80C30DAF8F6
:102CD0000030C9F8003068464FF48C71FEF756F9A1
:102CE000384647B0BDE8F08FD4120020DC01002048
:102CF00030B51346B3F5807F0D4683B004464FEAE6
:102D000052024FEA131102D0B3F5007F10D12944CB
:102D100004F58C700192FFF725FB08B103B030BDBC
:102D2000019A2946204603B0BDE83040FFF71ABBA0
:102D30006FF01F00F2E700BF30B51346B3F5807F98
:102D40000D4683B004464FEA52024FEA131102D0F7
:102D5000B3F5007F10D1294404F58C700192FFF780
:102D600001FB08B103B030BD019A2946204603B0EB
:102D7000BDE83040FFF7B0BE6FF01F00F2E700BFC4
:102D80002DE9F04FD0E9003600F1080505EB860487
:102D90008DB0486801926268D1F808804FEA630BF1
:102DA000504055F82630A2680E68059088EA02085F
:102DB0005E40CA68E368CDF818800BF1FF3B5A40CB
:102DC000BBF1000F079204F1100540F30782824B1C
:102DD000DC463034AA46F5B2170EC1B203EB8707C2
:102DE00003EB850503EB8101D7F8289ED5F828521F
:102DF000D1F8287254F8201CC0F3072E85EA090583
:102E00004D4003EB8E0EC8F3074103EB8101DEF862
:102E100028E6D1F8281A85EA0E054D40310E03EB5D
:102E200081015FFA88FED1F8281E4F4054F81C1C1F
:102E30007940C8F3072703EB87074FEA1069D7F8F3
:102E400028767940C2F3074703EB870703EB8E0E22
:102E5000D7F8287A03EB89094FEA1868794003EB21
:102E60008807DEF82882D9F828EED7F8287E88EA85
:102E70000E085FFA82FE03EB8E0EC2F30722DEF825
:102E8000289203EB8202C6F3072EC6F3074689EAAF
:102E9000070903EB8E0ED2F8287603EB8602DEF8E4
:102EA0002866D2F828EA54F8182CC0F3074088EABC
:102EB0000202574003EB800054F8142CD0F8280A83
:102EC00087EA0E0E89EA020777404740EEB24FEAE2
:102ED000176803EB880803EB8606D8F8282ED6F887
:102EE0002862C1F3072003EB8000564054F8102CF1
:102EF000D0F8280656404640CAB2CEF3074003EB4E
:102F0000800003EB8202D0F8288AD2F828022A0E29
:102F100003EB820286EA0806D2F8282E504054F8C5
:102F20000C2C5040CEF3072203EB82024FEA1168CB
:102F3000D2F828265040C7F3074203EB820203EB86
:102F40008808D2F8282AD8F8288E50405FFA8EF2E6
:102F500003EB8202C1F30741D2F8282282EA080279
:102F60005FFA87F8C7F3072703EB8101C5F3072949
:102F70004FEA1E6E03EB8707C5F30745009103EB8D
:102F80008E0E54F8081CD7F82876DEF828EE03EBEE
:102F9000880803EB8505D8F82882D5F8285A4A40D6
:102FA0007A4088EA0E0E82EA0508009A03EB890946
:102FB000D2F8281A54F8042CD9F828768EEA02029E
:102FC0007A40BCF1010C04F1200482EA01027FF492
:102FD00002AF0AEB4B1501E0DC010020F1B203EB7C
:102FE0008101D1F82842110E03EB8101D1F8281E8E
:102FF00084EA010CC1B203EB8101D1F82842310E01
:1030000003EB8101D1F8281E84EA010ED1B24FEA08
:10301000186403EB810103EB8404D1F82872D4F81F
:10302000281EC0F3072403EB84047940D4F828A6B3
:10303000070E5FFA88F403EB840403EB8707C0F301
:103040000740D7F8287ED4F8284203EB80007C4064
:10305000D0F8287A0094C8F3074003EB8000C8F347
:103060000728D0F828BAEC68C6F3072003EB8808D5
:1030700003EB8000D8F82896D0F8288628688CEAD8
:103080000000C2F3074CC2F3072203EB8C0C03EBE6
:103090008202614081EA0808009CA96880EA0A006F
:1030A000DCF828AAD2F828C66A6888EA07074C40E4
:1030B0008EEA020284EA0C0C82EA090203EB17642E
:1030C000C6F3074682EA0A0203EB860680EA0B0093
:1030D00094F828E0D6F8286A0890C2F3072453FA37
:1030E00080F11C448CEA060691F8281094F828C058
:1030F0002C690A966140C6F307441C4481EA0E61BC
:1031000094F82840099281EA0C2181EA044153FA9B
:1031100082F453FA86FCC6F3072903EB16660B9775
:10312000049194F82840029603EB0906009603EBFD
:103130001266C2F307429A1803EB106803926A6999
:1031400096F82860624098F8284082EA0464029A5F
:1031500053FA87FEC7F30729C0F3072AC0F3074BCA
:10316000C7F3074799441F449A449B449CF828306E
:1031700092F828C0009A9EF8280092F8282099F822
:1031800028E09AF828809BF8289084EA022497F88F
:103190002820AF697B4083EA0666EB69019D84EADB
:1031A0000244039A0594584092F82820296080EA46
:1031B0000C6C86EA0E268CEA082888EA024286EA27
:1031C000094604A86C60AE60EA602021069607926A
:1031D000FDF7DCFE00200DB0BDE8F08F004BFDE6F2
:1031E000DC0100202DE9F04FD0E9003600F10804A1
:1031F00004EB86058DB0486802926A684FEA630A5C
:10320000504054F82630AA688C6805905440CA682B
:10321000096806945940EB680AF1FF3A5A40BAF13E
:10322000000F079205F1100B40F31482F34BCDF819
:1032300004A030355FFA81FC4FEA106803EB8C0C78
:1032400003EB8808C2F3072ED8F8308DDCF830C1C4
:1032500055F8206C03EB8E0E8CEA080CDEF830E596
:103260008CEA060C8CEA0E0CC4F3074E03EB8E0EB0
:10327000C7B2DEF830E98CEA0E0C4FEA146E03EBAD
:10328000870703EB8E0ED7F83071DEF830ED87EA52
:103290000E0E55F81C7C8EEA0707C1F3072E03EBD0
:1032A0008E0E4FEA1268DEF830E587EA0E07C2F3A9
:1032B000074E03EB8E0ED2B2DEF830E987EA0E0736
:1032C0005FFA84FE03EB8E0E03EB880803EB8202A9
:1032D000DEF83091D8F830EDD2F830810A0E03EBE9
:1032E0008202C1F3074103EB8101D2F8302D89EA54
:1032F0000E09D1F830E9C0F30721C0F3074088EA8E
:10330000020803EB810103EB8002C4F30724D1F828
:103310003005D2F8301955F8182C03EB840489EAEB
:10332000020955F8142CD4F8304588EA02025440BA
:103330004C404FEA17685FFA8CF103EB880803EB07
:103340008101D8F8302DD1F8301189EA0009C4F391
:10335000072003EB8000514055F8102CD0F83005C1
:1033600089EA0E0E51404140FAB2CEF3074003EB1A
:10337000800003EB8202D0F83089D2F830014FEAA6
:103380001E6203EB820281EA0801D2F8302D504020
:1033900055F80C2C5040CCF3072203EB82024FEA85
:1033A0001468D2F830255040C4F3074203EB820280
:1033B00003EB8808D2F83029D8F8308D50405FFAF6
:1033C0008EF203EB8202E4B2D2F8302155F8086C99
:1033D00082EA08024FEA1C6803EB840403EB8808C6
:1033E000C7F30729D4F83041D8F8308D03EB8909A9
:1033F000CCF3074C84EA080803EB8C0CD9F8304571
:1034000072406240CEF3072EDCF83049019E03EB98
:103410008E0EC7F3074703EB8707544055F8042C7B
:10342000DEF830E5D7F8307988EA020282EA0E0247
:10343000013E05F1200582EA070201967FF4FAAE0B
:103440000BEB4A1BCDB203EB8505270ED5F8306197
:10345000050E03EB850503EB8707D5F8305D6E405D
:10346000C5B203EB8505D5F830C1D7F8305DD7B2CA
:103470008CEA05054FEA116C03EB870703EB8C0C14
:10348000D7F830E1DCF8307DC2F3072C03EB8C0C6D
:103490008EEA0707DCF830854FEA126E5FFA84FC8B
:1034A00003EB8C0C03EB8E0EC2F30742DEF830ED1B
:1034B000DCF830C103EB82028CEA0E0CD2F830E962
:1034C000C4F3074203EB8202C4F30724D2F830A905
:1034D000C1F30722C1F3074103EB820203EB810131
:1034E000D2F83095D1F83029DBF800107140C0F3E4
:1034F0000726C0F3074003EB840403EB860603EBC7
:10350000800381EA0801DBF80C00D3F83089DBF88E
:103510000430D4F83045D6F8306578406B40DBF89D
:103520000850444084EA080435480B948CEA0505A9
:103530006E40C4F30725054481EA0A01724083EA1C
:10354000090395F828610A9250FA81F583EA0E037F
:1035500095F82871089100EB136550FA82F995F8F7
:1035600028C1DBF8105009936F40C2F307450544AA
:1035700087EA0C6795F8285187EA062787EA054706
:1035800000EB126650FA83F5C2F30722821895F811
:1035900028C1039250FA84F500EB1462C4F3074487
:1035A000041904970194DBF8144092F8282195F847
:1035B0002851C1F3072A82448CEA040496F828C1F2
:1035C00084EA0C6C9AF82841C3F3072800EB116ECB
:1035D00080448CEA042C039C9EF8286198F828E12A
:1035E00094F82881019CC1F30741C3F3074394F881
:1035F0002841034408448CEA044403E0D412002028
:10360000DC01002099F8281190F828C193F82801CE
:10361000DBF8183005944B4083EA0262DBF81C307B
:1036200002995D4085EA066682EA0E2286EA08284B
:1036300082EA0C4288EA00460F6004A84C608A6067
:10364000CE60202106920796FDF7A0FC00200DB069
:10365000BDE8F08F004BF5E6D4120020012910B42C
:103660000C460AD811461A461CB95DF8044BFFF700
:10367000B9BD5DF8044BFFF783BB6FF020005DF828
:10368000044B70472DE9F04784B00129DDF83090F4
:103690007AD8002A69D0140779D107461D46164604
:1036A00051B318460D9B914403EB0208A9EB0603A6
:1036B00001681A68A8EB06044A402260D0F804C0EA
:1036C000596881EA0C016160D0F808E0D3F808C0BD
:1036D0008CEA0E0CC4F808C0D0F80CC0DB6883EA92
:1036E0000C03224621463846E360FFF749FBE8BB5E
:1036F000103E3ED02046D9E70D9B03EB0208D9F8D7
:103700000000D9F80410D9F80820D9F80C30A8EB3B
:103710000604EC46ACE80F00494622463846FFF75F
:1037200061FD09F11009EC4600BB23682A68616855
:10373000D4F808E05A4022606B684B406360D5F8CB
:1037400008A0BCE80F008EEA0A0CC4F808C0D5F83F
:103750000CE0D4F80CC0103E8CEA0E0CC4F80CC07F
:1037600028606960AA60EB60C9D1002004B0BDE8A0
:10377000F08721686268A368E468EC6029606A6089
:10378000AB6004B0BDE8F0876FF02000EEE76FF0AB
:103790002100EBE72DE9F04F2DED028B93B00129CD
:1037A0001E9D1F9E03928A4600F2A5811946C64BB4
:1037B0001446103A9A4200F2A2810AAF08EE100AAB
:1037C0003A4600F58C70FFF7DBFA0190002840F0D4
:1037D000B78004F00F030293029B4FEA141909F11A
:1037E000FF3904AC0DF13008002B69D10A9A2B681F
:1037F000534006930B9A6B68534007930C9AAB683F
:10380000534008930D9AEB68534006AA18EE100A2D
:1038100009931146BAF1000F40F08B80FFF7E2FCEC
:1038200003460190002B40F08B80DDE90A21069BC6
:1038300053403360079B0C9A4B40736097E803003A
:10384000089B534084E803000D9AB36098E8030096
:10385000099B5340F360DDE9042384E80300DDE9BC
:103860000401921843EB030C001840EAD3734FEAAB
:10387000D1704FEAC000C0F108004FF0870E4EFA39
:1038800000FE8EEA02028CEAEE70CDE9042041EBE4
:10389000010294E80300CDE9043287E8030094E8CC
:1038A000030009F1FF39B9F1FF3F88E8030005F192
:1038B000100506F1100B49D0029B5E46002B95D0F7
:1038C000BAF1010F92D0B9F1000F8FD197E80F0034
:1038D0000DF1380E84E803008EE80F0098E803002D
:1038E000DDE9043E84E80300DDE90410DB184EEB5B
:1038F0000E02491841EADE7E4FEAD0714FEAC1015B
:103900004FF0870CC1F108014CFA01F183EA010381
:1039100082EAE171CDE9043140EB000394E8030051
:10392000CDE904E387E8030094E8030088E8030096
:103930005CE7FFF725FA03460190002B3FF475AFD3
:10394000019813B0BDEC028BBDE8F08F029B002BF9
:10395000F6D0BAF1000F00D10EAF029C31462246DC
:10396000584605F001FD039B13F00C0112D006A888
:103970000423A446EA18FC18194652F8042C54F8FB
:10398000043C534040F8043B0B1D9C45F2D2029B83
:103990008B4229D96A5C7B5C029C534001F148024E
:1039A0006A4402F8303C4B1C9C421DD9FA5CE85C2E
:1039B00001F149036B44424003F8302C8B1CA342B5
:1039C00012D2FA5CE85C483303316B4442408C42CB
:1039D00003F8302C08D97A5C6B5C534001F1480243
:1039E0000DEB020101F8303C029BC3F1100106AA65
:1039F000032902EB030006EB030407EB030598BF62
:103A0000002213D90423E21805EB030C52F8042C0E
:103A10005CF804CC82EA0C0200EB030C4CF8042C9A
:103A20001A4604339942EED2914222D9AB5C14F883
:103A300002C083EA0C038354531C994219D915F828
:103A400003C014F803E08CEA0E0C00F803C0931CCA
:103A500099420ED915F803C014F803E003328CEA3A
:103A60000E0C914200F803C003D9A35CA95C4B4043
:103A70008354BAF1000F1DD106AA18EE100A1146A0
:103A8000FFF7B0FBE8B9730720D1DDE906233968F9
:103A90004A404BF8102C7A6808995340BA684BF8A2
:103AA0000C3C4A40099BF9684BF8082C4B404BF8FA
:103AB000043C45E706AA18EE100A1146FFF760F924
:103AC000E0E701903CE700BFF0FFFF00069A3B688B
:103AD000796853404BF8103C079BBA6859404BF843
:103AE0000C1C0899FB684A4009994BF8082C4B407C
:103AF0004BF8043C24E76FF02003019320E76FF0BC
:103B0000210301931CE700BF2DE9F0470129DDE9FE
:103B100008650A9F3FD81C680F2C98463BD8814601
:103B2000A1B972B105EB020A64B3325D15F8013B2D
:103B3000611C5A40AA4507F8012B335501F00F04C8
:103B4000F2D1C8F800400020BDE8F08705EB020A7A
:103B5000002AF6D06CB1325D15F8011B631C4A4097
:103B6000AA4507F8012B325503F00F04E9D0002CC9
:103B7000F1D1324631464846FFF702F90028EAD033
:103B8000BDE8F087324631464846FFF7F9F800288D
:103B9000CBD0BDE8F0876FF02000D5E72DE9F043EA
:103BA000012987B0DDE90E565AD8002A54D00129E0
:103BB00080461C4605EB02070DF1040916D03CE0D7
:103BC00015F8012B2378DDF80500DDF809105340C6
:103BD0008DF8143006F8013BDDF80D20DDF81130CA
:103BE0002060BD426160A260E36035D020686168FA
:103BF000A268E368CC46ACE80F0022462146404666
:103C0000FFF7BEF80028DBD007B0BDE8F08315F859
:103C1000013B22788DF81430534006F8013BDDF863
:103C200005302360DDF809306360DDF80D30A360F6
:103C3000BD42DDF81130E3600ED020686168A268F3
:103C4000E368CC46ACE80F00224621464046FFF729
:103C500097F80028DBD0D7E7002007B0BDE8F08355
:103C60006FF02000D0E700BF2DE9F0471468089EF0
:103C7000099D0F2C20D8904681B181469A466F1835
:103C80008CB11AF804C016F8010B8CEA000C05F888
:103C900001CB0134AF4204F00F04F1D1C8F8004069
:103CA0000020BDE8F087524651464846FFF768F8C5
:103CB0000028E6D0BDE8F0876FF02000F1E700BFF4
:103CC0002DE9F04F2DED028B146883B00F2CDDE948
:103CD0000F78DDF8389001921E4600F28D800D4677
:103CE00000297FD008EE100A002C4AD0C4F1100C35
:103CF00029468C4528BF8C46BCF1030F09EB040311
:103D00003A46C6464FF0000467D90421501803EB29
:103D1000010A50F8040C5AF804AC80EA0A000EEBD1
:103D2000010A4AF8040C084604318C45EED2844559
:103D300024D9195C12F800A081EA0A010EF80010DB
:103D4000411C8C451AD913F801A012F801B08AEA77
:103D50000B0A0EF801A0811C8C450FD913F801A0A5
:103D600012F801B003308AEA0B0A84450EF801A06C
:103D700004D9125C1B5C53400EF800306444A54229
:103D80002DD918EE100A4A463146FEF7F9FF70BBEE
:103D9000F3681BBA01331ABAF26083B9B3681BBA6D
:103DA00001331ABAB26053B973681BBA01331ABA35
:103DB000726023B933681BBA01331BBA33604FF00A
:103DC000100C291B8C4528BF8C46BCF1030F08EB57
:103DD000040E07EB04024B4697D80020A9E7019B8D
:103DE0001C681A462B1903F00F031360002003B060
:103DF000BDEC028BBDE8F08F6FF02000F7E700BF4D
:103E0000F0B5D1E90075546885EA040CD1E9026582
:103E10001468D16892684D4086EA020E46494FEA1E
:103E20001C627C408E5C51FA8CF2CCF3072792F82E
:103E300000210F4442EA0662CCF307460E4497F88D
:103E400000C21F6842EA0C2C96F8002351FA85F64E
:103E50004CEA024C2A0E96F800618A5C46EA026639
:103E6000C5F307220A44C5F3074592F800220D4422
:103E700046EA022695F8002351FA84F546EA0246FE
:103E8000220E95F800518A5C45EA0265C4F30722C8
:103E90000A44C4F3074492F800220C4445EA022580
:103EA00094F8002351FA8EF445EA02454FEA1E6267
:103EB00094F800418A5C44EA0264CEF307220A4483
:103EC000CEF3074E92F80022714444EA022491F89E
:103ED00000234FEA3C414FEA364644EA024464BAC2
:103EE00084EA0C0281EA070C52BA77BA7A4082EA75
:103EF000354286EA344649BA81EA354E82EA36418D
:103F000049BA8CEA01010160596869405140714029
:103F100041609D684FEA3E4149BA79404FEA3242DA
:103F2000694051408160D96852BA84EA02034B402B
:103F300083EA0E03C360F0BDF89E00082DE9F04F40
:103F40007A4DA3B0174605908C460FCD06AC0FC432
:103F50000FCD0FC495E80F00802F84E80F0000F00C
:103F6000D281C02F03D0B7F5807F40F0EF81DCF81D
:103F70000430139312AB0493DCF808301493DCF88C
:103F80000C301593DCF800301293DCF814301793E2
:103F90000026DCF810301693B7F5807FCDE918665F
:103FA00040F09D81DCF81C200598199216ABDCF8D6
:103FB00018201892102101700EAA18460499009337
:103FC000FFF71EFF009B06AC6268179F199D1698AD
:103FD00057495740E2685540226880EA020EA068BF
:103FE000189C01EB1762604051FA87F492F80022A6
:103FF00094F800C34CEA026C01EB1562022E92F8B1
:10400000004251FA85F292F8002342EA046201EB81
:104010001E6494F8008251FA8EF494F8004344EA46
:104020000864C7F30728C7F307470F4411F808804F
:1040300097F800714CEA082C4CEA074CC5F30727A7
:10404000C5F307450D44CF5D95F8005142EA0722BC
:1040500042EA054201EB10654FEA324295F80072E0
:1040600051FA80F595F8005345EA0765CEF3072726
:10407000CEF3074ECF5D8E4444EA07249EF80071CC
:1040800044EA0744C0F30727C0F307400844C95D6A
:1040900045EA012190F8005150BA41EA0541139DCB
:1040A00049BA81EA0C077FBA87EA000787EA3447F2
:1040B00085EA040582EA314285EA070585EA0205B8
:1040C0001B95129D4FEA3C4C87EA324252BA82EA73
:1040D000050282EA0C02149D1A92624652BA82EAE2
:1040E00034444FEA344252BA80EA02004FEA37477A
:1040F000159A85EA000585EA07057FBA81EA070176
:1041000081EA020282EA04021D921DBF06A9721C06
:1041100001EB021206AA1AA91EA81C95FFF770FE51
:10412000DDE904CB00239A4604E000BFF8A20008B2
:10413000F89E00080498DCF800900AF1010A0AF0E1
:10414000030300EB03111B01CA68C3581BBA12BA60
:10415000D1E90101DC0C44EA423424BA09BA84EA08
:10416000090400BACBF80440CC0C44EA403424BA29
:104170000294D40C44EA413425BADC0F44EA4204E8
:1041800024BA84EA0904CBF84440C40F44EA430447
:1041900026BACC0F44EA400427BACC0844EA40745B
:1041A00024BA84EA0904CBF884404FEAD04EC4080C
:1041B0004FEA500800964EEA433EDE0844EA437454
:1041C00048EAC3785B080395019743EAC273D50FA9
:1041D000D70846EA4276520845EA410547EA417760
:1041E00042EAC17298FA88F8490841EAC07188EA3F
:1041F000090093FA83F8DCF80430CBF8C4009EFA87
:104200008EFE8EEA0300CBF8080009BA00985940E8
:104210003FBACBF8C8105F400299CBF8887058407D
:10422000DCF80830019FCBF8480012BA0CF1100CF2
:1042300059405A4036BACBF80C10CBF8CC2087EA5C
:104240000301039ACBF84C105E405CF8043CCBF8B9
:104250008C602DBA0BF1100B24BA5A405D405C40C3
:10426000BAF1040F88EA0303CBF80020CBF84050E2
:10427000CBF88040CBF8C0307FF45CAFDDE916317D
:10428000199A04980DBA1BBA18996C0B44EAC344E6
:1042900012BA5B0B09BA43EAC243520B42EAC1426B
:1042A000490B41EAC541129D24BA6C40059DC5F8F1
:1042B0000441139C09BA6140C5F80811149912BA57
:1042C0004A401599C5F80C211BBA4B40C5F810316E
:1042D0004021FCF75BFE002023B0BDE8F08F803F5B
:1042E000BF09059A0499BB1D5B00137016AB06AAA3
:1042F000184602EB07120093FFF782FD012F009B87
:104300001FD906AC60E6DCF80430DCF80820139313
:10431000059C149216ABDCF80C20159212A8DCF860
:104320000020049000270C2116972170C3E9017723
:10433000DF601292014606AA18460093FFF760FD5F
:10434000009B7E1C06AA02EB06143DE66FF05B00A4
:10435000C2E700BF2DE9F84F8046FFF7EFFD834627
:1043600000285DD198F80050002D59D0424608EB46
:1043700005132C4601465E68576856605F609F686B
:1043800096689760DF689E60D668D7601F69DE60B8
:104390000131013C103B166942F8107FA1421E62B8
:1043A000E9DB012D3CDDA8F11003C64603EB051542
:1043B000DEF81880DEF82020DEF81470DEF81C60CD
:1043C00076BA4FEA324288EA060451BA64BA81EA00
:1043D000040C8CEA374382EA36424FEA384483EAD7
:1043E000020960BA80EA37484FEA334C89EA070786
:1043F0004FEA3849604640BA4640484640BA4140D4
:1044000083EA324386EA080681EA0C015BBA63401C
:10441000CEE90537CEE907160EF1100EAE45C7D12D
:104420005846BDE8F88F00BF2DE9F04F83B04C68C7
:10443000D1F808B0D1F80080D1F80CA00778A84BCB
:10444000009086460026A4465D46019226E06DBA9D
:104450004FEA314188EA05004CBA40BA604080EA30
:104460003C4081EA354B4FEA384880EA0B0A424625
:1044700051BA81EA3C494FEA30418AEA0C0C80EAA1
:104480003B4040BA88EA000848BA85EA000A4FEA89
:1044900039456DBA65408AEA090A4D40DEE90141B5
:1044A0008CEA010CDEE903104FEA1C698AEA000A73
:1044B0004D4053FA8CF0CCF30721194413F80990BE
:1044C00090F8000191F80012CCF3074C9C4440EAAC
:1044D000096040EA01209CF800134FEA1A6C40EA98
:1044E000014053FA8AF113F80C9091F8001141EA57
:1044F0000961CAF307299944CAF3074A99F8009257
:104500009A4488EA04044FEA146841EA09219AF8B7
:10451000009313F8088053FA84FA41EA09419AF8A3
:1045200000A14AEA0868C4F3072A9A44C4F307447E
:104530001C449AF800A294F8004348EA0A2848EA82
:1045400004484FEA156953FA85F413F8099094F872
:10455000004144EA0964C5F307299944C5F30745B6
:104560001D4499F8009295F8005344EA09244FEA53
:10457000304C4FEA314144EA05444DBA64BA6040D8
:1045800040BA85EA000ADEF818008AEA384A88EA62
:104590000009DEF8140081EA344189EA0A0989EA4F
:1045A00001098AEA314149BA4840614649BA81EA7B
:1045B00038484FEA384BDEF81C1080EA0C004FEA0E
:1045C0003A4A5EF820CF5A4652BA55404D405246BC
:1045D00051BA614081EA0C0181EA080153FA80FC7A
:1045E00003EB1068C0F30744C0F3072085EA0A050F
:1045F0009CF800C398F800A2185C1C444CEA0A6CB2
:1046000094F800814CEA002C03EB19644CEA084C46
:1046100053FA89F8C9F30740C9F3072994F800420F
:1046200098F8008313F8099048EA046848EA0928D2
:1046300003EB156453FA85F91844023690F800012B
:1046400094F8004299F800A34AEA046AC5F30724E3
:1046500003EB11691C5D99F8009248EA004853FA8F
:1046600081F04AEA042A90F80003C1F30724C5F355
:104670000745C1F3074119441D4440EA096013F896
:10468000049095F8005191F80041B74240EA0921A1
:104690004AEA054541EA04413FF7D9AE002F07F148
:1046A000FF37009B019A27F0010707F1020708BFB7
:1046B000022703EB07170020BB6888EA0308FB68A2
:1046C0005D403B6959407B68C2F804808CEA030C6A
:1046D000C2F800C09560D16003B0BDE8F08F00BFA4
:1046E000F89E00084FF48A72002103F0C9BD00BF94
:1046F00018B14FF48A71FCF749BC70472DE9F043BB
:1047000085B001290D9D6CD814076DD107461C4654
:10471000B9BB92B30C9E06EB020830687168B268B0
:10472000F368EC46ACE80F002A4631463846FFF7FE
:104730007BFE2A6821686B68D5F808E04A402A6049
:10474000626853406B60D4F80890EC46BCE80F00F8
:104750008EEA090CC5F808C0D4F80CE0D5F80CC0F6
:1047600010368CEA0E0C4645C5F80CC0206061601E
:10477000A260E36005F11005CFD1002005B0BDE8CF
:10478000F083002AF9D00C9B914603EB02081544F4
:10479000A8EB090321681A68A5EB09064A403260B4
:1047A00059686068414071609868D4F808C080EA30
:1047B0000C00B060DB68D4F80CC083EA0C0332460E
:1047C0003146F3603846FFF72FFE31687268B368F0
:1047D000F068E060B9F1100921606260A360D7D190
:1047E000CBE76FF05B00C9E76FF05D00C6E700BF85
:1047F0002DE9F0470129DDE908560A9F50D81C68C9
:104800000F2C99464CD8824629BBFAB106EB020818
:104810002A46294650466CB9FFF706FE16F8012BCA
:104820002B78B04583EA020307F8013B4FF00104FF
:104830002A7033D02B5D16F8012B611C534046457E
:1048400007F8013B2A5501F00F04E1D1C9F80040F7
:104850000020BDE8F08706EB0208002AF6D02A46C1
:10486000294650466CB9FFF7DFFD16F8012B2B786F
:10487000B04583EA020307F8013B4FF001042B70B7
:104880000CD02A5D16F8011B631C4A40464507F808
:10489000012B2A5503F00F04E1D1D7E70124D5E716
:1048A0006FF05B00D5E700BF2DE9F84F1468DDF825
:1048B00028B00F2CDDE90B677BD8914689B1824681
:1048C0001D4606EB01088CB11BF804C016F8013B2D
:1048D00001348CEA030C464507F801CB04F00F04C1
:1048E000F1D1C9F800400020BDE8F88F5A462946AA
:1048F0005046FFF799FDEB7B0133DBB2EB73002BE6
:10490000E2D1AB7B0133DBB2AB73002BDCD16B7B31
:104910000133DBB26B73002BD6D12B7B0133DBB2BF
:104920002B73002BD0D1EB7A0133DBB2EB72002B6F
:10493000CAD1AB7A0133DBB2AB72002BC4D16B7A34
:104940000133DBB26B72002BBED12B7A0133DBB2A9
:104950002B72002BB8D1EB790133DBB2EB71002B5A
:10496000B2D1AB790133DBB2AB71002BACD16B7937
:104970000133DBB26B71002BA6D12B790133DBB293
:104980002B71002BA0D1EB780133DBB2EB70002B45
:104990009AD1AB780133DBB2AB70002B94D16B783A
:1049A0000133DBB26B70002B8ED12B7801332B706F
:1049B0008AE76FF05B0097E730B503680D68204C1D
:1049C000496840686B40484004EB136191F800C1AE
:1049D00054FA83F191F8001241EA0C61C3F3074CD9
:1049E000A444C3F307239CF800C3E35C41EA0C41F1
:1049F00041EA0321C0F30723234493F800C204EBE8
:104A0000106393F800E354FA80F3C0F3074093F87F
:104A10000031205C43EA0E6343EA004343EA0C237F
:104A2000D2E9004081EA336183EA314381EA3321EC
:104A3000634083EA31234140C2E9003130BD00BF09
:104A400028A300084FF48A72002103F019BC00BFAC
:104A500018B14FF48A71FCF799BA70472DE9F04FFD
:104A6000C3B01646041D402207460D461EA800216D
:104A700003F006FC4FF488720021204603F000FC8E
:104A8000C02E0AD0B6F5807F07D0802E00F0298393
:104A90006FF0230043B0BDE8F08FF2084FF004033D
:104AA00008BF012229461EA83B6003F0DBFB1E98CD
:104AB000C02E00BA40F04F83229BDB432493239BFC
:104AC000DB4325932C234FF001080193DFF89CE48E
:104AD000DFF89CC4DFF89C94DFF89CA42299DFF8EF
:104AE0009CB41F9D0E90CDE902ECDFF894C4209A8F
:104AF000219BCDE9049CDFF88CC4CDE906ACDFF83E
:104B000088C409BA4840CDE908BC1291DFF87CC4DA
:104B10002399CDF828C009BA2DBA0CF14D4C0F9548
:104B200013914D400CF5030C249916900CF2235C64
:104B300009BA12BACDF82CC0DFF854C410921491FF
:104B40004A402599CDF830C00CF1647C09BA1BBAF3
:104B50000CF5645C0CF13B0C119315914B4000215A
:104B6000CDF834C0CDE91A11CDE91C1116A8CDE954
:104B7000175202A918AA1993FFF71EFF16AA04A933
:104B800018A8FFF719FFDDE916230E994A4016927F
:104B90000F9ADDE9180553401793109B5840119B5D
:104BA00018905D4006A916A818AA1995FFF704FFEA
:104BB00016AA18A808A9FFF7FFFE802E19D9169A81
:104BC000129B53401A93179A139B53401B93189AA6
:104BD000149B53401C93199A159B0AA953401AA879
:104BE0001CAA1D93FFF7E8FE1AAA1CA80CA9FFF740
:104BF000E3FEDC4B0E98DDF83CC011992E9003EBE0
:104C00000813CDF8BCC093F800E4109B30933191A9
:104C10004FEA0812BEF1000F17D04FEA5C4E4EEA81
:104C2000C03ECDF8C8E04FEA534E4EEACC3ECDF838
:104C3000CCE04FEA514E4EEAC33ECDF8D0E04FEA09
:104C4000504E4EEAC13ECDF8D4E0C64D05EB020E03
:104C50009EF801E4BEF1000F17D04FEA9C0E4EEA19
:104C6000807ECDF8D8E04FEA930E4EEA8C7ECDF8E8
:104C7000DCE04FEA910E4EEA837ECDF8E0E04FEAA9
:104C8000900E4EEA817ECDF8E4E0B64D05EB020EC3
:104C90009EF802E4BEF1000F17D04FEADC4E4EEA58
:104CA000403ECDF8E8E04FEAD34E4EEA4C3ECDF818
:104CB000ECE04FEAD14E4EEA433ECDF8F0E04FEA49
:104CC000D04E4EEA413ECDF8F4E0A64D05EB020E83
:104CD0009EF803E4BEF1000F11D04FEA1C1E4EEA0D
:104CE000007E000940EA0170090941EA03711B09CD
:104CF00043EA0C73CDF8F8E0419040913F9308EB04
:104D00008809994B4FEA091909F1FF3E9E442EA9E3
:104D10004FEA88030093084642AB1EF901CFBCF16D
:104D2000FF3F1CBF056844F82C5004308342F4D187
:104D3000802E40F286808B48DDF848E0DDF84CA0FC
:104D4000DDF854C0CDF8B8E01044CDF8BCA090F820
:104D500004B414983090CDF8C4C0BBF1000F17D044
:104D60004FEA5A4B4BEACE3BCDF8C8B04FEA504B16
:104D70004BEACA3BCDF8CCB04FEA5C4B4BEAC03BA8
:104D8000CDF8D0B04FEA5E4B4BEACC3BCDF8D4B077
:104D9000744D05EB020B9BF805B4BBF1000F17D067
:104DA0004FEA9A0B4BEA8E7BCDF8D8B04FEA900BC6
:104DB0004BEA8A7BCDF8DCB04FEA9C0B4BEA807B58
:104DC000CDF8E0B04FEA9E0B4BEA8C7BCDF8E4B017
:104DD000644D05EB020B9BF806B4BBF1000F17D036
:104DE0004FEADA4B4BEA4E3BCDF8E8B04FEAD04BF6
:104DF0004BEA4A3BCDF8ECB04FEADC4B4BEA403B88
:104E0000CDF8F0B04FEADE4B4BEA4C3BCDF8F4B0B6
:104E1000544D05EB020B9BF807B4BBF1000F40F0BB
:104E20008381514809F1130E864408461EF901CFCB
:104E3000BCF1FF3F1CBF056844F82C50043083428E
:104E4000F4D14848DDF858E0DDF85CA0DDF864C036
:104E5000CDF8B8E01044CDF8BCA090F808B418988C
:104E60003090CDF8C4C0BBF1000F17D04FEA5A4BB9
:104E70004BEACE3BCDF8C8B04FEA504B4BEACA3BA9
:104E8000CDF8CCB04FEA5C4B4BEAC03BCDF8D0B08C
:104E90004FEA5E4B4BEACC3BCDF8D4B0314D05EB3D
:104EA000020B9BF809B4BBF1000F17D04FEA9A0B25
:104EB0004BEA8E7BCDF8D8B04FEA900B4BEA8A7B59
:104EC000CDF8DCB04FEA9C0B4BEA807BCDF8E0B02C
:104ED0004FEA9E0B4BEA8C7BCDF8E4B0214D05EBFD
:104EE000020B9BF80AB4BBF1000F17D04FEADA4B64
:104EF0004BEA4E3BCDF8E8B04FEAD04B4BEA4A3B89
:104F0000CDF8ECB04FEADC4B4BEA403BCDF8F0B0CB
:104F10004FEADE4B4BEA4C3BCDF8F4B0114D05EBBC
:104F2000020B9BF80BB4BBF1000F15D04FEA1A1B14
:104F30004BEA0E7B4FEA1E1E4EEA0C7E4FEA1C1C0B
:104F40004CEA007C000940EA0A70CDF8F8B0CDF8D0
:104F500004E1CDF800C13F90034809F1270E8644D3
:104F6000084617E028A3000848A700087F669EA00F
:104F70008B90CC3B58E87AB62F37EFC6A553FF5439
:104F8000B273AA4CBE824FE91C6FD3F1FA27E51029
:104F9000C28856B01EF901CFBCF1FF3F1CBF0568A7
:104FA00044F82C5004309842F4D1802E7ED96C48BD
:104FB000DDF868C0DDF86CE01D9ECDF8B8C0104487
:104FC000CDF8BCE090F80CA41C9830903196BAF162
:104FD000000F17D04FEA5E4A4AEACC3ACDF8C8A093
:104FE0004FEA504A4AEACE3ACDF8CCA04FEA564AA8
:104FF0004AEAC03ACDF8D0A04FEA5C4A4AEAC63A3B
:10500000CDF8D4A0564D05EB020A9AF80DA4BAF1DA
:10501000000F17D04FEA9E0A4AEA8C7ACDF8D8A042
:105020004FEA8E7A4AEA900ACDF8DCA04FEA807AFD
:105030004AEA960ACDF8E0A04FEA9C0A4AEA867A44
:10504000CDF8E4A0464D05EB020A9AF80EA4BAF199
:10505000000F17D04FEA4C3A4AEADE4ACDF8E8A0F2
:105060004FEAD04A4AEA4E3ACDF8ECA04FEAD64A87
:105070004AEA403ACDF8F0A04FEADC4A4AEA463A1A
:10508000CDF8F4A0364D2A4492F80F24002A38D1E6
:10509000344A09F13B09914419F9012F551C1CBFF1
:1050A000086844F8220004319942F5D1009B019A26
:1050B0002D4943440132984607EB82031F4601EB1A
:1050C00088015037013911F9012F501C1CBF54F8C9
:1050D00022201A6004339F42F5D1002043B0BDE87E
:1050E000F08F03233B602868EB686968AA680DF1BC
:1050F000780CACE80F0020234FF00008019300BAB1
:10510000E4E44FEA1E1242EA0C723E924FEA1C128D
:1051100042EA06724192320942EA00724092020962
:1051200042EA0E723F92B3E74FEA1A1B4BEA0E7B3C
:105130004FEA1E1E4EEA0C7E4FEA1C1C4CEA007C15
:10514000000940EA0A70CDF8F8B0CDF804E1CDF8D6
:1051500000C13F9065E62C234FF001080193B5E4B0
:1051600028A3000848A70008E8A7000870B5C6B043
:105170000C46154600214FF48A72064601A803F03A
:105180007FF821462A4601A8FFF768FC044600285C
:1051900041D1019B354602AA45F8143BA3F1040313
:1051A000B3FA83F35B094FEAC30C0CF1180102EB6D
:1051B000C10352F8312072605A68B2609A68F26096
:1051C000DA683261A3F108000CF11601103B2A469F
:1051D0009E6842F8086B0139DE6842F8046CA3F15E
:1051E0000803F5D1CCF1000300EBC3030CF1150C5F
:1051F00005EBCC0C53F8B42CCCF80C2053F8B02CA5
:10520000CCF81020A83B53F8042C53F8103CCCF8F1
:105210001420CCF8083001A84FF48A71FBF7B6FED1
:10522000204646B070BD00BF012900F282802DE902
:10523000F04115689468D1680768984653684268D9
:105240002DBA6A4085681BBA6B40C56824BA6C40A9
:10525000056986B009BA694002920393049400F18B
:1052600014050591002F4CD02E463C46314602A82D
:1052700004AAFFF7A1FB02AA06F1080104A8FFF7A0
:105280009BFB04AA06F1100102A8FFF795FB02AAF6
:1052900006F1180104A8FFF78FFB04AA06F120010C
:1052A00002A8FFF789FB013C02AA06F1280104A825
:1052B000FFF782FBF4B1DDF808E0716B326B01910E
:1052C0000399DDF814C0F36BB06B0EEA020281EAB9
:1052D000F27204994CEA03034B40019918401143C0
:1052E00081EA0E018CEAF070CDE90212CDE90430BA
:1052F0004036BBE7DDE90441DDE9022305EB871514
:10530000103D68684140A8684240E868434028680A
:10531000444009BA12BA24BA1BBA0020C8F80410D3
:10532000C8F80040C8F80820C8F80C3006B0BDE83E
:10533000F0816FF0230070472DE9F04385B001291B
:105340000D9D6ED814076FD107461C46C1BB9AB39A
:105350000C9E06EB020830687168B268F368EC4690
:10536000ACE80F002B46324600213846FFF75CFFC1
:105370002A6821686B68D5F808E04A402A606268AC
:1053800053406B60D4F80890EC46BCE80F008EEAFE
:10539000090CC5F808C0D4F80CE0D5F80CC01036DC
:1053A0008CEA0E0C4645C5F80CC020606160A26016
:1053B000E36005F11005CED1002005B0BDE8F08313
:1053C000002AF9D00C9B914603EB02081544A8EB88
:1053D000090122680B68A5EB0906534033604A684F
:1053E0006068424072608868D4F808C080EA0C00A7
:1053F000B060C868D4F80CC080EA0C00334632466E
:105400000121F0603846FFF70FFF31687268B3681A
:10541000F068E060B9F1100921606260A360D6D144
:10542000CAE76FF02300C8E76FF02500C5E700BFAB
:105430002DE9F0470129DDE908560A9F52D81C687A
:105440000F2C9A464ED8814631BB02B306EB0208B8
:105450002B462A46012148466CB9FFF7E5FE16F8AF
:10546000012B2B78464583EA020307F8013B4FF0F6
:1054700001042A7034D02B5D16F8012B611C5340B7
:10548000464507F8013B2A5501F00F04E0D1CAF860
:1054900000400020BDE8F08706EB0208002AF6D0A5
:1054A0002B462A46012148466CB9FFF7BDFE16F887
:1054B000013B2A78464583EA020307F8013B4FF097
:1054C00001042B700CD02A5D16F8011B631C4A40A6
:1054D000464507F8012B2A5503F00F04E0D1D6E723
:1054E0000124D4E76FF02300D4E700BF2DE9F84F83
:1054F0001468DDF828B00F2CDDE90B677BD89146E6
:1055000081B182461D4606EB010884B11BF80410E8
:1055100016F8013B01345940464507F8011B04F0D9
:105520000F04F2D1C9F800400020BDE8F88F5B46B7
:105530002A4601215046FFF777FEEB7B0133DBB2B1
:10554000EB73002BE2D1AB7B0133DBB2AB73002BEF
:10555000DCD16B7B0133DBB26B73002BD6D12B7BA1
:105560000133DBB22B73002BD0D1EB7A0133DBB2EA
:10557000EB72002BCAD1AB7A0133DBB2AB72002BDA
:10558000C4D16B7A0133DBB26B72002BBED12B7AA4
:105590000133DBB22B72002BB8D1EB790133DBB2D4
:1055A000EB71002BB2D1AB790133DBB2AB71002BC5
:1055B000ACD16B790133DBB26B71002BA6D12B79A7
:1055C0000133DBB22B71002BA0D1EB780133DBB2BE
:1055D000EB70002B9AD1AB780133DBB2AB70002BB0
:1055E00094D16B780133DBB26B70002B8ED12B78AA
:1055F00001332B708AE76FF0230096E770B5C66F12
:1056000006F00303032B84B009D10446806A48B92D
:10561000636B023B012B30D8206204B070BD0020C8
:1056200004B070BD626A237822BB256B0238400843
:105630006A1E42EAC00018432070236A4DB100225E
:10564000C2F10F010132D2B2954263544FEA1323E3
:10565000F6D8ABB903AB009310222346214604F1E0
:105660003800FBF75FFF0028DAD0E36F43F0100348
:10567000E367D5E743F04003D7E76FF00C00CFE7CF
:1056800046F01006E6676FF00C00C9E72DE9F0431D
:1056900089B01D4603AB0093144600231022CDE9C8
:1056A0000433CDE9063303938046894604AB811861
:1056B0003830109EFBF736FF0746002841D104AB77
:1056C000032C03EB09004AD904216A18431852F845
:1056D00004CC53F8042C8E46731804318CEA020C67
:1056E0008C4243F804CCF0D2744521D915F80E2031
:1056F00010F80E30534006F80E300EF101039C42B4
:1057000016D9E95CC25C4A40F2540EF102039C4295
:105710000ED9E95CC25C0EF1030E4A407445F254A6
:1057200006D915F80E3010F80E20534006F80E304A
:1057300010210DEB0100FBF729FC384609B0BDE84C
:10574000F083D8F87C3010210B430DEB0100C8F832
:105750007C30FBF71BFC384609B0BDE8F083BE4641
:10576000C4E700BF8022002102F08ABD2DE9F0418C
:10577000044617460846012219461E46FBF7BAFDA5
:10578000C0B1037903F01F03102B054612D1383442
:105790002046FBF7D7FD29462046FBF7EFFD08B171
:1057A000BDE8F0813246394620460123BDE8F0418C
:1057B000FBF704BE6FF00C00F2E700BF50B110B56C
:1057C00004463830FBF7BEFD20468021BDE810407E
:1057D000FBF7DCBB704700BFF8B51D46073B062B47
:1057E00028D8C5F10F030026C0E90C311746013B4C
:1057F0000446066146618661C66103742A463946DD
:10580000113002F02FFD6B1C04F11000226B3146A9
:10581000184402F035FD0123E377E0182A463946A3
:1058200002F020FDE36F43F001032046E367BDE88B
:10583000F840E3E66FF00C00F8BD00BF022B4BD040
:10584000102B49D870B5044613F0010084B040D144
:10585000B1F57F4F3DD2E66F46F00205E56705F0F2
:105860000305032DC4E90821C4E90A3006D13BB978
:10587000626B023A012A2CD82362184604B070BD2C
:10588000257819BB206B023B5B08411E41EAC3032C
:105890001D43257048B10023C3F10F010133DBB272
:1058A000984262544FEA1222F6D8C2B903AB009371
:1058B00010222346214604F13800FBF733FE00286E
:1058C000DCD0E36F43F01003E367D7E745F0400512
:1058D000D8E76FF00C00D1E76FF00C00704746F08E
:1058E0001206E6676FF00C00C8E700BF2DE9F0472D
:1058F000C36F13F0100884B040F094801546002A5E
:1059000078D013F0080840F08D805A0781460C4685
:1059100000F18380426AAA42C0F0848043F004030D
:10592000C367037883EA12230370437853404370BC
:10593000C36A09F1380703AE981C00F00F00C0F1EC
:105940001002AA4228BF2A46032A09EB000A62D99C
:105950004FF0040CAAF1040104EB0C0E51F80C30CA
:105960005EF804EC8EEA030E41F80CE063460CF19D
:10597000040C6245F0D2934227D21AF8031014F8AF
:1059800003C08CEA010C591C8A420AF803C01CD9D6
:1059900014F801C01AF801E08CEA0E0C0AF801C0F4
:1059A000991C8A4211D914F801C01AF801E0033396
:1059B0008CEA0E0C9A420AF801C006D9E15C1AF88A
:1059C00003C081EA0C010AF80310D9F82C30104406
:1059D00013441028C9F82C30A5EB020514440DD04F
:1059E000D9F82420934209D0002DA5D1D9F824203C
:1059F0009A421AD0404604B0BDE8F08700964B4664
:105A0000102249463846FBF78DFDD0B9D9F82C3025
:105A1000002D91D1EAE70023AFE7C36A426A591922
:105A2000914286D96FF00C08E4E7D9F87C30C9F8C8
:105A30002C5043F008034046C9F87C3004B0BDE860
:105A4000F087D9F87C30804643F010034046C9F80F
:105A50007C3004B0BDE8F0872DE9F04F06462DED0F
:105A6000028B9A46F36F8BB013F010039146169891
:105A7000179A039340F02881B36A8846002B40F0C0
:105A80001D81814500F22081C2F800900DF1180BB4
:105A9000B9F1000F22D006F1380308EE103AF36A8C
:105AA000756B03F00F07C7F110044C4528BF4C4637
:105AB00025F002052344012DF36219D0002D61D099
:105AC0002744102F00F0D880F26A336A9A4200F01F
:105AD000D380B9EB0409A044A244E0D11021584678
