:020000040800F2
:100000000080012069310008B9310008B9310008C9
:10001000B9310008B9310008B9310008000000000A
:10002000000000000000000000000000B9310008DE
:10003000B931000800000000B9310008C50200080D
:10004000B9310008B9310008B9310008B9310008E8
:10005000B9310008B9310008B93100082109000898
:10006000B9310008B9310008B9310008B9310008C8
:10007000B9310008B9310008B9310008B9310008B8
:10008000B9310008B9310008B9310008000000009A
:10009000000000000000000000000000B93100086E
:1000A000B9310008B9310008B9310008B931000888
:1000B000B9310008B9310008B9310008B931000878
:1000C000B9310008B9310008B9310008B931000868
:1000D000B931000809040008B93100080000000027
:1000E000B9310008B9310008B9310008000000003A
:1000F000000000000000000000000000B93100080E
:1001000000000000B9310008B9310008B931000819
:1001100000000000000000000000000000000000DF
:10012000B9310008B9310008B9310008B931000807
:10013000B9310008000000000000000000000000CD
:10014000000000000000000000000000B9310008BD
:10015000B9310008B9310008B9310008B9310008D7
:10016000B9310008B93100080000000000000000AB
:10017000000000000000000000000000000000007F
:1001800000000000B931000800000000000000007D
:04019000B931000879
:1001A000034613F8012B002AFBD1181A01387047B7
:1001B00001F0FF01102A2BDB10F0070F08D010F818
:1001C000013B013A8B422DD010F0070F42B3F6D11C
:1001D000F0B441EA012141EA014122F007047FF035
:1001E00000070023F0E80256083C85EA010586EA8C
:1001F000010685FA47F5A3FA87F586FA47F6A5FAC8
:1002000087F68EB9EED1F0BC01F0FF0102F00702D3
:1002100032B110F8013B013A83EA010313B1F8D17E
:100220000020704701387047002D06BF354603385F
:10023000073815F0010F07D1013015F4807F02BF98
:10024000013015F4C03F0130F0BC0138704700BFE9
:1002500080B400AF0B4B1B6B0A4A43F004031363DB
:10026000094B1B68084A43F080631360064B9B6987
:10027000054A43F40053936100BFBD465DF8047B1B
:10028000704700BF003802400008024080B582B0CD
:1002900000AF78600A4B9B69094A43F000539361B1
:1002A000786800F01DF8064B9B69054A43F400533B
:1002B0009361786800F014F800BF0837BD4680BD30
:1002C0000008024080B400AF044B1B680133034AAE
:1002D000136000BFBD465DF8047B704798000020A6
:1002E00080B485B000AF7860084B1B68FB6000BF2E
:1002F000064B1A68FB68D31A7A689A42F8D200BF94
:1003000000BF1437BD465DF8047B7047980000209D
:1003100080B483B000AF03463960FB7197F90730B2
:10032000002B0ADB3B68DAB20C4997F9073012015F
:10033000D2B20B4483F800230AE03B68DAB20849E2
:10034000FB7903F00F03043B1201D2B20B441A767F
:1003500000BF0C37BD465DF8047B704700E100E04C
:1003600000ED00E080B582B000AF78607B68013BB3
:10037000B3F1807F01D301230FE00A4A7B68013B80
:1003800053600F214FF0FF30FFF7C2FF054B0022F3
:100390009A60044B07221A60002318460837BD46AE
:1003A00080BD00BF10E000E080B500AF142002F077
:1003B00029FF03461A460F4B1A600F4B1B680F4A62
:1003C000A2FB03239B091846FFF7CCFFFFF740FF72
:1003D00000F052F800F0DCF8094800F02BF9094B66
:1003E0001B78002BFBD0074B00221A706420FFF70C
:1003F0004DFFF4E79C00002030000020D34D621038
:10040000A4440008A000002080B400AF154B1B6876
:1004100003F02003002B16D0124B5B681F2B02D178
:10042000114B01221A700F4B5868104B1B685A1C55
:100430000E490A60C2B21A700D4B1B78DBB2013351
:10044000DAB20B4B1A70074B1B6803F08003002BCA
:1004500002D0084B01221A7000BFBD465DF8047B34
:10046000704700BF00100140A00000209C00002049
:10047000A2000020A100002090B58FB002AF384A42
:1004800007F1280392E80300186004331980354B04
:100490007B626FF07F433B62334BFB614FF008336D
:1004A000BB6101F04FFD3B4600221A605A609A6022
:1004B000DA601A61C3F8132097F828303B7097F878
:1004C00029307B7097F82A30BB7097F82B30FB707F
:1004D00097F82C303B7197F82D307B7197F82430CA
:1004E000BB7197F82530FB7197F826303B7297F86F
:1004F00027307B7297F82030BB7297F82130FB725F
:1005000097F822303B7397F823307B733B7FBB73A4
:100510007B7FFB73BB7F3B74FB7F7B743B7EBB7439
:100520007B7EFB74BB7E3B75FB7E7B753B4603F19C
:100530000E043B4603F10A023B46991D38463B46F2
:1005400012330093234601F06DFA01F0C7FA01F06F
:10055000FBFA3220FFF79AFE00BF3437BD4690BD4C
:10056000B4440008C0A80164C0A8010180B582B0ED
:1005700000AF03460A46FB711346BB80BA88F87980
:100580000023022100F0A6FD00BF0837BD4680BD54
:1005900080B500AF044B1B7841F233611846FFF77A
:1005A000E5FF00BF80BD00BFA300002080B588B07C
:1005B00002AFF860B9607A607B800B4B1878BB683B
:1005C0009AB27B8800937B68F96800F007FF786136
:1005D0007B69002B01DD002301E04FF0FF3318465B
:1005E0001837BD4680BD00BFA300002080B588B08D
:1005F00002AFF860B9607A603B600D4B1878BB6859
:100600001B689AB23B6800937B68F96801F01CF89C
:1006100078617B69002B04DD7A69BB681A6000236E
:1006200001E04FF0FF3318461837BD4680BD00BFCC
:10063000A300002080B5FCB000AF07F5F873A3F568
:10064000F673186007F5F873A3F5F0734FF4807232
:100650001A6007F58A73DC220021184602F0E8FDD3
:10066000012387F81431002387F81531002387F818
:100670001631012387F8173102F050FF0346DBB231
:1006800087F8183102F04AFF0346DBB287F81931C8
:10069000012387F824310B2387F8283107F5F873F5
:1006A000A3F5F6731B68C7F82C3107F5F873A3F5AB
:1006B000F6731868FFF774FD0346C7F8303107F585
:1006C0008A7207F1100107F11403184600F072FB5B
:1006D0000346002B02D04FF0FF3313E007F5F87309
:1006E000A3F5F2730A4A1A6007F5F873A3F5F073DD
:1006F000196807F10C0207F1140041F23363FFF7A8
:1007000055FF0346184607F5F877BD4680BD00BF84
:10071000C0A8016580B5FEB000AF07F5FC73A3F576
:10072000F673186007F5FC73A3F5F873196007F505
:10073000FC73A3F5FA731A6007F5FC73A3F5F07365
:100740004FF480721A6007F5FC73A3F5FA731B6807
:10075000802B02D94FF0FF3366E007F58E73DC2261
:100760000021184602F064FD012387F81C310023A4
:1007700087F81D31002387F81E31032387F81F31C6
:1007800002F0CCFE0346DBB287F8203102F0C6FE51
:100790000346DBB287F82131012387F82C310B2384
:1007A00087F8303107F5FC73A3F5F6731B68C7F8BB
:1007B000343107F5FC73A3F5F6731868FFF7F0FC06
:1007C0000346C7F8383107F5FC73A3F5F8731B68C7
:1007D000C7F8F03107F5FC73A3F5FA731B68C7F887
:1007E000F43107F58E7207F1180107F11C03184662
:1007F00000F0E0FA0346002B02D04FF0FF3313E085
:1008000007F5FC73A3F5F2730A4A1A6007F5FC7347
:10081000A3F5F073196807F1140207F11C0041F207
:100820003363FFF7C3FE0346184607F5FC77BD4662
:1008300080BD00BFC0A8016580B5FCB000AF07F562
:10084000F873A3F5F673186007F5F873A3F5F8735A
:10085000196007F5F873A3F582734FF480721A607C
:1008600007F1E60307F1E80207F1EC0107F1F000F8
:10087000FFF7BCFE0346002B02D04FF0FF334AE0E7
:1008800007F5F873A3F582731A6807F1F00107F111
:100890000803184600F04FFA0346002B02D04FF031
:1008A000FF3338E007F5F873A3F5F473D3F8D830C5
:1008B000002B2ED007F5F873A3F5F473D3F8D820E6
:1008C00007F5F873A3F5F8731B681B689A4220D8E4
:1008D00007F5F873A3F5F473D3F8D41007F5F8739C
:1008E000A3F5F473D3F8D82007F5F873A3F5F673DE
:1008F000186802F08FFC07F5F873A3F5F473D3F8CA
:10090000D82007F5F873A3F5F8731B681A60002365
:1009100001E04FF0FF33184607F5F877BD4680BD7C
:1009200080B5C2B000AF364B5B6903F00203002B09
:1009300061D0334B02225A61002387F8073197F8C0
:1009400007319B000133DB0003F50073184602F00A
:1009500009F9034603F01F0387F8063197F80631BB
:1009600003F00403002B32D097F807319B000133CA
:10097000DB0003F500730421184602F03FF94FF441
:100980008073A7F8043107F582723B46114618467A
:10099000FFF752FF0346002B19D1B7F804311A466E
:1009A0003B461849184602F007FE0346002B0ED1BD
:1009B0003123A7F8003107F580731846FFF7F0FBE5
:1009C000024607F5807319460F48FFF7A3FE97F814
:1009D000063103F00803002B0DD097F807319B0078
:1009E0000133DB0003F500730821184602F006F915
:1009F0000648FFF71FFE00BF07F58477BD4680BDA0
:100A0000003C0140BC440008D0440008E044000819
:100A100080B485B000AFF860B9607A607B68032B62
:100A200001D8012328E0BB681B789B09DAB2FB6878
:100A30001A70FB681B78012B01D002231CE0BB68F5
:100A40001B781B11DBB203F00303DAB2FB685A70A8
:100A5000BB681B7803F00F03DAB2FB689A70BB68BF
:100A60005A78FB68DA70BB689A78FB681A71BB68C1
:100A7000DA78FB685A71002318461437BD465DF8D2
:100A8000047B704780B485B000AFF860B9607A60CD
:100A90003B60BB689B78002B07D1FB6800221A6083
:100AA000FB6800225A60002317E0BB689B78082B84
:100AB00012D8BB689B7804333A689A4201D2032368
:100AC0000BE07B681A1DFB681A60BB689B781A46AE
:100AD000FB685A60002300E0032318461437BD4624
:100AE0005DF8047B704780B489B000AFF860B960EE
:100AF0007A603B607B681B68FB610123FB76FB7EB1
:100B00003A689A4201D20423A8E0FB691B781B09CA
:100B1000DBB2FB82FB691B789BB203F00F033B83C4
:100B2000FB8A0D2B12D1FB7E0133FB76FB7E3A68EC
:100B30009A4201D2042391E0FB6901331B789BB2F6
:100B40000D33FB82FB690133FB6123E0FB8A0E2B33
:100B50001BD1FB7E0233FB76FB7E3A689A4201D2C0
:100B600004237BE0FB6901331B781B021AB2FB698B
:100B700002331B781BB213431BB29BB203F20D135B
:100B8000FB82FB690233FB6104E0FB8A0F2B01D17E
:100B90000B2363E03B8B0D2B12D1FB7E0133FB76E5
:100BA000FB7E3A689A4201D2042357E0FB69013385
:100BB0001B789BB20D333B83FB690133FB6123E060
:100BC0003B8B0E2B1BD1FB7E0233FB76FB7E3A6800
:100BD0009A4201D2042341E0FB6901331B781B02D6
:100BE0001AB2FB6902331B781BB213431BB29BB2D0
:100BF00003F20D133B83FB690233FB6104E03B8B83
:100C00000F2B01D1082329E03B8B0133FA691A44E9
:100C10007B6819683B680B449A4201D907231DE0A1
:100C2000FB8ADAB2BB681B88DBB21344DAB2FB681A
:100C30001A70FB695A1CFB685A603A8BFB689A6011
:100C40003B8B0133FA691A447B681A60BB681A88C7
:100C5000FB8A13449AB2BB681A80002318462437D3
:100C6000BD465DF8047B704780B58AB000AFF86080
:100C7000B9607A603B6000237B6200237B833B6822
:100C80009B7804333A6B13447B613A6B7B6B134460
:100C90003B627B693A6A9A421BD2062347E07A6A32
:100CA00013465B0013449B001A46FB6898187B6947
:100CB0003A6AD31A07F1140207F11A01FFF713FF7A
:100CC000F861FB69002B01D0FB6930E07B6A0133DE
:100CD0007B62BB681B781A467B6A934207D27B69AA
:100CE0003A6A9A4203D97B691B78FF2BD7D17B6A7A
:100CF000DAB2BB681A707B6901333A6A9A420FD93B
:100D00007B691B78FF2B0BD17B695A1C7B681A60AF
:100D10007B6901333A6AD31A1A467B685A6005E048
:100D20007B6800221A607B6800225A600023184604
:100D30002837BD4680BD90B589B002AFF860B96074
:100D40007A60FB687A68B9681846FFF761FE7861D7
:100D50007B69002B01D07B6928E0FB6803F1080068
:100D6000F9687B68BA68FFF78DFE78617B69002BB4
:100D700001D07B691AE0FB6810221A74FB6803F14A
:100D80001400FB6803F11001FB6803F1D402FC6856
:100D90007B680193BB6800932346FFF765FF78618A
:100DA0007B69002B01D07B6900E0002318461C37CB
:100DB000BD4690BD80B58AB000AFF860B9607A607A
:100DC0000023BB610023FB83BB681A687B689B78A8
:100DD00004339A4201D2092354E17B681B789B01BA
:100DE000DAB2FB681A70FB681B785AB27B685B78D2
:100DF0001B015BB203F030035BB213435BB2DAB2A8
:100E0000FB681A70FB681B785AB27B689B785BB2F0
:100E100003F00F035BB213435BB2DAB2FB681A70E4
:100E2000FB6801337A68D2781A70FB6802337A68FB
:100E300012791A70FB6803337A6852791A70FB686A
:100E400004333B627B689B78002B08D07B689B78DF
:100E50001A467B68DB689A4201D00A2312E17B685C
:100E60009B78002B07D07B6899687B689B781A4633
:100E7000386A02F0CFF97B689B781A463B6A1344C4
:100E80003B6200237B62BFE00023BB743A6AFB68CD
:100E9000D31A1A46BB681B689A4201D90923F1E0AC
:100EA00079687A6A13465B0013449B000B44143341
:100EB0001B781A46FB8BD31A7B6107F11203194684
:100EC000786900F0E3F879687A6A13465B001344A6
:100ED0009B000B441C331B6807F113021146184694
:100EE00000F0D4F8BB7C1B015AB2FB7C5BB213430D
:100EF00059B23B6A5A1C3A62CAB21A70BB7C0D2BBB
:100F000008D17B69DAB23B6A591C39620D3AD2B218
:100F10001A7013E0BB7C0E2B10D17B69A3F20D136A
:100F2000190A3B6A5A1C3A62CAB21A707B69DAB271
:100F30003B6A591C39620D3AD2B21A70FB7C0D2BF8
:100F400010D179687A6A13465B0013449B000B4406
:100F50001C331B68DAB23B6A591C39620D3AD2B2B3
:100F60001A7021E0FB7C0E2B1ED179687A6A134639
:100F70005B0013449B000B441C331B68190A3B6A3B
:100F80005A1C3A62CAB21A7079687A6A13465B00D0
:100F900013449B000B441C331B68DAB23B6A591C98
:100FA00039620D3AD2B21A7079687A6A13465B00D8
:100FB00013449B000B441833186879687A6A134607
:100FC0005B0013449B000B441C331B681A4601460C
:100FD000386A02F01FF979687A6A13465B00134495
:100FE0009B000B441C331B683A6A13443B627968CC
:100FF0007A6A13465B0013449B000B4414331B783E
:10100000FB837B6A01337B627B681B7C1A467B6AAD
:101010009342FFF439AF3A6AFB68D31A043BBB61D1
:101020007B68D3F8D830002B27D0BB681A687B6860
:10103000D3F8D810BB690B4405339A4201D2092377
:1010400020E0BB690433FA681344FF221A70BB69BD
:101050000533FA68D0187B68D3F8D4107B68D3F8CE
:10106000D8301A4602F0D6F87B68D3F8D820BB698E
:1010700013445A1DBB681A6003E0BB691A1DBB68A4
:101080001A60002318462837BD4680BD80B483B05F
:1010900000AF786039607B680C2B04D87B68DAB2CB
:1010A0003B681A700EE07B68B3F5867F03D83B6817
:1010B0000D221A7006E07B68054A934202D83B680D
:1010C0000E221A7000BF0C37BD465DF8047B7047D6
:1010D0000C01010090B585B000AF044608461146EA
:1010E0001A462346FB710346BB710B46BB80134671
:1010F000FB70FB79082B02D94FF0FF33F2E0BB798C
:10110000012B05D0002B11DD023B022B0ED811E084
:1011100007F10C03042219464FF4706001F0BCFD86
:10112000FB68002B05D16FF00203DBE06FF00403D6
:10113000D8E000BFFB7803F00403002B02D06FF06F
:101140000503CFE0FB78002B25D0BB79012B02D023
:10115000022B08D024E0FB7803F02103002B1CD1E4
:101160006FF00503BEE0FB7803F02003002B06D0F0
:1011700097F90330002B02DB6FF00503B2E0FB7838
:1011800003F01003002B0AD097F90330002B06DB85
:101190006FF00503A6E000BF02E000BF00E000BF63
:1011A000FB79184600F0ACF8FB799B000133DB00BB
:1011B000184697F9033023F00F035AB297F9063017
:1011C00013435BB2DBB2194601F018FDBB88002B5C
:1011D00010D1464B1B885A1C91B2444A1180BB80E7
:1011E000424B1B884FF6F072934203D13F4B4FF4B2
:1011F00040421A80FB799B000133DB0003F58063DA
:101200001A46BB881B0A9BB2DBB21946104601F096
:10121000F5FCFB799B000133DB0003F5A0631A4664
:10122000BB88DBB21946104601F0E8FCFB799B0055
:101230000133DB0003F580730121184601F0DEFC69
:1012400000BFFB799B000133DB0003F58073184678
:1012500001F088FC0346002BF3D1FB79012202FA4E
:1012600003F31BB2DB431AB2214B1B881BB21340A2
:101270001BB29AB21E4B1A80FB7803F00102FB7975
:1012800002FA03F31AB21A4B1B881BB213431BB2A8
:101290009AB2174B1A80FB79012202FA03F31BB2B0
:1012A000DB431AB2134B1B881BB213401BB29AB21A
:1012B000104B1A80FB79104A002122F81310FB7999
:1012C0000E4A0021D15400BFFB799B000133DB00A3
:1012D00003F54073184601F045FC0346002BF3D09C
:1012E00097F9073018461437BD4690BD000000201E
:1012F000A4000020A6000020A8000020B8000020C4
:1013000080B582B000AF0346FB71FB79082B02D990
:101310004FF0FF3355E0FB799B000133DB0003F511
:1013200080731021184601F069FC00BFFB799B0017
:101330000133DB0003F58073184601F013FC03460C
:10134000002BF3D1FB799B000133DB0003F5007325
:101350001F21184601F052FCFB79012202FA03F327
:101360001BB2DB431AB2194B1B881BB213401BB2D2
:101370009AB2164B1A80FB79012202FA03F31BB2D0
:10138000DB431AB2124B1B881BB213401BB29AB23A
:101390000F4B1A80FB790F4A002122F81310FB79BA
:1013A0000D4A0021D15400BFFB799B000133DB00C3
:1013B00003F54073184601F0D5FB0346002BF3D12B
:1013C000012318460837BD4680BD00BFA400002099
:1013D000A6000020A8000020B800002080B586B03C
:1013E00000AFB9607B600346FB731346BB810023EB
:1013F000FB750023BB82FB7B082B02D94FF0FF3328
:101400001BE1FB7B9B000133DB00184601F0AAFBCC
:10141000034603F00F03023B022B02D96FF00403D3
:101420000BE100BFBB89002B02D16FF00D0304E17B
:101430007B681B783B613B691B027A68013212783A
:1014400013443B613B691B027A68023212781344F1
:101450003B613B691B027A680332127813443B619B
:101460003B69002B0ED1FB7B9B000133DB00184650
:1014700001F078FB034603F00403042B02D06FF065
:101480000B03DAE03B8C002B0ED1FB7B9B0001337E
:10149000DB00184601F066FB034603F00403042B4F
:1014A00002D06FF00A03C8E0FB7B9B000133DB0036
:1014B00003F54073184601F055FB0346FB75FB7DB1
:1014C000422B08D0FB7D222B05D0FB7D322B02D096
:1014D0006FF00603B1E0FB7B9B000133DB0003F5FB
:1014E000406304227968184601F036FCFB7B9B00C0
:1014F0000133DB0003F580531A463B8C1B0A9BB279
:10150000DBB21946104601F079FBFB7B9B000133EF
:10151000DB0003F588531A463B8CDBB219461046B4
:1015200001F06CFBFB7B9B000133DB0003F5F85300
:10153000184601F017FB03469BB29B02BB82BA8997
:10154000BB8A9A4201D9BB8ABB81FB7B184601F05A
:1015500063FC0346BB82FB7B9B000133DB0003F58E
:101560004073184601F0FEFA0346002B02D16FF0DB
:10157000030362E0334B1B881A46FB7B42FA03F3FA
:1015800003F00103002B05D0BA89BB8A9A4201D926
:10159000002352E0BA89BB8A9A4200D9D5E700BF3E
:1015A000BA89FB7BB968184601F0CCFCFB7B9B0039
:1015B0000133DB0003F580732021184601F01EFB88
:1015C00000BFFB7B9B000133DB0003F580731846F3
:1015D00001F0C8FA0346002BF3D1FB7B9B000133DB
:1015E000DB0003F50073184601F0BCFA034603F074
:1015F0001F03FB75FB7D03F01003002B0CD0FB7B5E
:101600009B000133DB0003F500731021184601F045
:10161000F5FA00BFBB8910E0FB7D03F00803002B47
:10162000DBD0FB7B9B000133DB0003F5007308215B
:10163000184601F0E3FA6FF00C0318461837BD4660
:1016400080BD00BFA400002080B588B000AFB960A5
:101650007B600346FB731346BB810023FB83FB7B4C
:10166000082B02D94FF0FF33D4E1FB7B9B00013301
:10167000DB00184601F076FA03467B777B7F03F0A8
:101680000F03023B022B02D96FF00403C2E100BF3B
:10169000BB89002B02D16FF00D03BBE1FB7B884AB5
:1016A00032F81330002B28D1FB7B184601F0FFFBEA
:1016B0000346FB83FB7B9B000133DB0003F5407398
:1016C000184601F04FFA0346002B02D16FF00303D6
:1016D000A0E17C4B1B881A46FB7B42FA03F303F024
:1016E0000103002B04D0FB8B002B01D1002391E1DF
:1016F000FB8B002B00D1D7E700BF7B7F03F00703F4
:10170000042B79D0042B00F34281022B03D0032B4E
:1017100000F0DC803BE1FB7B694A32F81330002BA0
:1017200052D107F11401FB7B0822184601F066FC38
:10173000FB7B9B000133DB0003F5807340211846DF
:1017400001F05CFA00BFFB7B9B000133DB0003F57B
:101750008073184601F006FA0346002BF3D13A7D58
:101760007B681A707B6801337A7D1A707B6802335C
:10177000BA7D1A707B680333FA7D1A703B7E9AB289
:10178000BB6A1A80BB6A1B881B029AB27B7E9BB223
:1017900013449AB2BB6A1A80BA7EFB7B91B2484A64
:1017A00022F81310FB7B464A32F813301B0299B221
:1017B000FB7E9AB2FB7B0A4491B2414A22F8131095
:1017C000FB7B414A8021D154FB7B3D4A32F81330E8
:1017D000BA899A4202D2BB89FB8304E0FB7B384A78
:1017E00032F81330FB83FB8BBB81FA8BFB7BB96830
:1017F000184601F003FCD6E0FB7B314A32F8133087
:10180000002B46D107F11401FB7B0222184601F0A0
:10181000F5FBFB7B9B000133DB0003F5807340216C
:10182000184601F0EBF900BFFB7B9B000133DB00A6
:1018300003F58073184601F095F90346002BF3D1A8
:101840003A7DFB7B91B21E4A22F81310FB7B1C4AA7
:1018500032F813301B029AB27B7D9BB213449AB2CA
:10186000FB7B023A91B2164A22F81310FB7B144A12
:1018700032F8133040F2EA52934206D9FB7B184605
:10188000FFF73EFD6FF47A73C4E0FB7B0E4A8021C4
:10189000D154FB7B0A4A32F81330BA899A4202D2F9
:1018A000BB89FB8304E0FB7B054A32F81330FB83E2
:1018B000FA8BFB7BB968184601F0A0FB73E000BF10
:1018C000A8000020A4000020B8000020FB7B534AA1
:1018D00032F81330002B44D107F11401FB7B0622B0
:1018E000184601F08BFBFB7B9B000133DB0003F50B
:1018F00080734021184601F081F900BFFB7B9B00FB
:101900000133DB0003F58073184601F02BF9034621
:10191000002BF3D13A7D7B681A707B6801337A7DA6
:101920001A707B680233BA7D1A707B680333FA7DC4
:101930001A703A7EFB7B91B2384A22F81310FB7B77
:10194000364A32F813301B0299B27B7E9AB2FB7B87
:101950000A4491B2314A22F81310FB7B304A8021AD
:10196000D154FB7B2D4A32F81330BA899A4202D205
:10197000BB89FB8304E0FB7B284A32F81330FB83EE
:10198000FA8BFB7BB968184601F038FB0BE0FA8B49
:10199000FB7B1146184601F08DFBFB7B1F49FA8B40
:1019A00021F8132000BFFB7B9B000133DB0003F514
:1019B00080734021184601F021F900BFFB7B9B009A
:1019C0000133DB0003F58073184601F0CBF80346C2
:1019D000002BF3D1FB7B114A32F81310FB7BFA8BFF
:1019E0008A1A91B20D4A22F81310FB7B0B4A32F887
:1019F0001330002B09D0FB7B094AD25CFB7B42F001
:101A00000102D1B2064AD15403E0FB7B044A002113
:101A1000D154FB8B18462037BD4680BDA80000205E
:101A2000B800002080B58AB000AFF860B9607A6075
:101A30003B60FB681B783B74FB685B787B74FB68DE
:101A40009B78BB74FB68DB78FB74FB681B793B7588
:101A5000FB685B797B75BB681B78BB75BB685B7883
:101A6000FB75BB689B783B76BB68DB787B767B68D5
:101A70001B78BB767B685B78FB767B689B783B77D3
:101A80007B68DB787B773B681B78BB773B685B7850
:101A9000FB773B689B7887F820303B68DB7887F8DA
:101AA00021303B6B1B7887F822303B6B5B7887F8E3
:101AB00023303B6B9B7887F824303B6BDB7887F8CF
:101AC0002530012387F8263007F11003194600203E
:101AD00000F062FC00BF2837BD4680BD80B582B0F3
:101AE00000AF154801F012FDFB1C19460F2000F055
:101AF00071FB03467B607B68B3F1FF3F03D10F4866
:101B000001F004FD09E0FB78002B06D10C4801F040
:101B1000FDFC40F2DC50FEF7E3FB7B68B3F1FF3FD6
:101B2000E2D0FB78002BDFD0064801F0EFFC00BFCD
:101B30000837BD4680BD00BFF044000818450008C6
:101B4000484500086445000880B582B000AFFB1D21
:101B500019460F2000F03EFB0346B3F1FF3F03D1CF
:101B6000384801F0D3FC6AE0FB79012B03D13648F9
:101B700001F0CCFC02E0354801F0C8FC3B461946B8
:101B80000B2000F027FB0346B3F1FF3F03D13048A1
:101B900001F0BCFC53E02F4801F032FC3B78002BF5
:101BA00002D0012B04D007E02B4801F0AFFC07E086
:101BB0002A4801F0ABFC03E0294801F0A7FC00BF74
:101BC000284801F01DFCBB78002B02D0012B04D06B
:101BD00007E0254801F09AFC07E0244801F096FC54
:101BE00003E01F4801F092FC00BF214801F008FC0F
:101BF000FB78002B02D0012B04D007E01D4801F038
:101C000085FC07E01C4801F081FC03E0144801F06A
:101C10007DFC00BF194801F0F3FB7B78002B02D05C
:101C2000012B04D007E0164801F070FC07E01548CE
:101C300001F06CFC03E00A4801F068FC00BF0837C3
:101C4000BD4680BD7C4500089C450008B0450008A5
:101C5000C4450008E8450008F4450008104600089F
:101C60002C46000838460008444600085046000844
:101C70005C4600086C4600087C4600088C4600085C
:101C8000A4460008B046000880B483B000AF034605
:101C9000FB7197F90730002B0BDBFB7903F01F0278
:101CA000074997F907305B09012000FA02F241F871
:101CB000232000BF0C37BD465DF8047B704700BF92
:101CC00000E100E080B483B000AF03463960FB71EF
:101CD00097F90730002B0ADB3B68DAB20C4997F919
:101CE00007301201D2B20B4483F800230AE03B68AC
:101CF000DAB20849FB7903F00F03043B1201D2B2B8
:101D00000B441A7600BF0C37BD465DF8047B704764
:101D100000E100E000ED00E080B483B000AF0346D6
:101D2000FB7100BF0C4B9B6803F00203002BF9D042
:101D30000A4AFB79137000BF074B9B6803F001034D
:101D4000002BF9D0054B1B78DBB218460C37BD468B
:101D50005DF8047B704700BF003001400C3001404B
:101D600080B400AF034B10229A6100BFBD465DF8FE
:101D7000047B70470000024080B400AF044B4FF476
:101D800080129A6100BFBD465DF8047B704700BFBA
:101D90000000024080B500AF0020FFF7BDFF034602
:101DA000184680BD80B582B000AF0346FB71FB7959
:101DB0001846FFF7B1FF00BF0837BD4680BD90B59C
:101DC00085B000AF78600B467B800023FB600AE0A3
:101DD000FB687A68D4180020FFF79EFF0346237043
:101DE000FB680133FB607B88FA689A42F0DB00BF36
:101DF00000BF1437BD4690BD80B584B000AF786099
:101E00000B467B800023FB6009E0FB687A68134483
:101E10001B781846FFF7C6FFFB680133FB607B8821
:101E2000FA689A42F1DB00BF00BF1037BD4680BDA3
:101E300080B500AF3D4B5B6C3C4A43F48053536428
:101E40003A4B1B6B394A43F001031363384B1B6851
:101E5000374A43F428431360354B1B6A344A43F036
:101E6000AA4343F4A0031362314B9B68304A43F406
:101E7000284393602E4B1B682D4A43F480731360F4
:101E80002B4B10229A61294B1B6B284A43F002030B
:101E90001363284B1B68274A43F001031360254B4B
:101EA00001229A61244B00221A60234B1B68224AAC
:101EB00043F4477343F0030313601F4B1B681E4A30
:101EC00043F040031360194B1B6B184A43F00203A5
:101ED0001363164B5B6C154A43F480435364154BF4
:101EE0001B68144A23F00C031360124BDB68114A81
:101EF00043F00403D360114B9B68104A43F0010385
:101F000093600F4B1B680E4A43F0020313600C4BA7
:101F1000DB680B4A43F00203D36000210720FFF780
:101F2000D1FE0720FFF7B0FE00BF80BD00380240A1
:101F3000000002400004024000300140003801402F
:101F4000003C014090B587B000AF274B3C1D0FCB44
:101F500084E80F00FF23FB75FFF76AFFFFF700FF20
:101F6000224B4FF480329A6100BFFB7D5A1EFA75F6
:101F7000002BFAD11D4B01229A611D491D4800F02A
:101F8000ABF81D491D4800F0CDF81D491D4800F073
:101F9000F5F83B1D1946012000F01CF90346B3F18A
:101FA000FF3F03D1184801F0B1FAFEE73B1D03F1F2
:101FB00008023B1D1146184600F078FAFF214FF445
:101FC000B05000F01BFE052142F6084000F016FE5E
:101FD0001F214FF4027000F011FE0C4801F096FA38
:101FE00000BF1C37BD4690BD884700080004024072
:101FF000611D0008791D0008A51D0008951D000839
:10200000F91D0008BF1D00083C4700085C47000898
:1020100080B400AF00BFBD465DF8047B704780B45C
:1020200000AF00BFBD465DF8047B704780B400AFD1
:1020300000BFBD465DF8047B704780B400AF00BFB1
:10204000BD465DF8047B704780B483B000AF786014
:102050007B681B78DBB218460C37BD465DF8047B05
:10206000704780B483B000AF78600B46FB707B682C
:10207000FA781A7000BF0C37BD465DF8047B7047D4
:1020800080B400AF00231846BD465DF8047B70475E
:1020900080B483B000AF0346FB7100BF0C37BD4670
:1020A0005DF8047B704780B483B000AF78600B4666
:1020B0007B8000BF0C37BD465DF8047B704780B461
:1020C00083B000AF78600B467B8000BF0C37BD4605
:1020D0005DF8047B7047000080B483B000AF786087
:1020E00039607B68002B02D03B68002B06D10A4B7D
:1020F0000A4A5A61084B0A4A9A6106E0064A7B6816
:102100005361054A3B68936100BF00BF0C37BD4671
:102110005DF8047B704700BF040000202D200008FC
:102120003B20000880B483B000AF7860396000BF06
:102130000F4B1B8803F40073002BF9D07B68002B36
:1021400002D03B68002B06D1094B0A4ADA61084BE2
:10215000094A1A6206E0064A7B68D361044A3B6872
:10216000136200BF00BF0C37BD465DF8047B7047AB
:1021700004000020812000089120000880B483B072
:1021800000AF7860396000BF0F4B1B8803F4007309
:10219000002BF9D07B68002B02D03B68002B06D1C6
:1021A000094B0A4A5A62084B094A9A6206E0064AF3
:1021B0007B685362044A3B68936200BF00BF0C37E0
:1021C000BD465DF8047B704704000020A72000088E
:1021D000BF20000890B587B000AF03463960FB719F
:1021E0000023FB750023FB6000233B61FB790F2B71
:1021F00000F2C78001A252F823F000BF3D22000880
:10220000432200086F220008632200087D22000894
:102210008922000897220008BD220008E322000856
:10222000272300082D2300083523000889230008F0
:102230003D2300084B2300086723000800F0EAF85C
:10224000A3E03B68002B04D03B68FB60FB680833CD
:102250003B61FB683A691146184600F027F90346CE
:1022600094E03B681B88184600F0ACF98DE000F064
:10227000DDF903461A463B681A8086E03B681B88F6
:10228000184600F0F8F980E000F010FA03461A460C
:102290003B681A8079E03B681B881B0A9BB2DBB263
:1022A00019464FF4985000F0A9FC3B681B88DBB23C
:1022B00019464FF4A05000F0A1FC66E04FF498508E
:1022C00000F050FC03469BB21B029CB24FF4A0509E
:1022D00000F048FC03469BB223449AB23B681A8044
:1022E00053E02C4B9A783B681A703B680133294ABB
:1022F000D2781A703B680233264A12791A703B680A
:102300000333244A52791A703B680433214A927984
:102310001A703B6805331F4AD2791A703B6806333E
:1023200000221A7031E000F013FA2EE0386800F055
:1023300036FA2AE0386800F074FA26E03B681B7829
:10234000184600F0D7FA034620E000F0E8F903460B
:10235000FB75FB7DFF2B02D14FF0FF3316E03B688E
:10236000FA7D1A7011E000F0C4F90346FB75FB7D9D
:10237000FF2B02D14FF0FF3308E03B68FA7D1A7063
:1023800003E04FF0FF3301E000BF002318461C3785
:10239000BD4690BD0400002080B582B000AF03466A
:1023A0003960FB71FB79052B2CD801A252F823F080
:1023B000C9230008D1230008D9230008E723000817
:1023C000F5230008FD230008386800F0DDFA1CE062
:1023D000386800F019FB18E03B681B78184600F0DD
:1023E00053FB034612E000F071FB03461A463B68BC
:1023F0001A700AE0386800F071FB06E0386800F0F7
:102400008EFB02E04FF0FF3300E000231846083750
:10241000BD4680BD80B586B000AF3B1D0622194683
:102420004FF4106000F038FC07F114030422194641
:102430004FF4807000F030FC07F1100304221946BD
:102440004FF4A06000F028FC07F10C0304221946A9
:102450004FF4706000F020FC8021002000F0CEFBE3
:10246000002000F07FFB3B1D062219464FF4106050
:1024700000F072FC07F11403042219464FF4807037
:1024800000F06AFC07F11003042219464FF4A06023
:1024900000F062FC07F10C03042219464FF470604F
:1024A00000F05AFC00BF1837BD4680BD80B584B02F
:1024B00000AF786039600023BB73FFF7ABFF7B6828
:1024C000002B3BD00023BB730023FB7315E097F96F
:1024D0000F307A6813441A78BB7B1344DBB2BB73AA
:1024E00097F90E30102B02DD4FF0FF3366E097F9BD
:1024F0000F30DBB20133DBB2FB7397F90F30072BE0
:10250000E5DD0023FB7315E097F90F309B000133E5
:10251000DB0003F5F853184697F90F307A68134437
:102520001B78194600F06AFB97F90F30DBB20133D4
:10253000DBB2FB7397F90F30072BE5DD3B68002B0F
:102540003BD00023BB730023FB7315E097F90F30DA
:102550003A6813441A78BB7B1344DBB2BB7397F918
:102560000E30102B02DD4FF0FF3327E097F90F30CC
:10257000DBB20133DBB2FB7397F90F30072BE5DDDC
:102580000023FB7315E097F90F309B000133DB004C
:1025900003F5F053184697F90F303A6813441B7847
:1025A000194600F02BFB97F90F30DBB20133DBB299
:1025B000FB7397F90F30072BE5DD00231846103722
:1025C000BD4680BD80B584B000AF0346FB80FB886C
:1025D000FB73FB881B0A9BB2BB73FB7B23F00F03CF
:1025E000DBB219464FF4A85000F008FB0023FB7340
:1025F00014E0BA7BFB7B42FA03F303F00103002BE8
:1026000009D0FB7B9B000133DB0003F500731F2126
:10261000184600F0F3FAFB7B0133FB73FB7B072BBF
:10262000E7D900BF00BF1037BD4680BD80B582B07E
:1026300000AF0023FB710023BB710023BB804FF46C
:10264000A85000F08FFA034623F00F03FB714FF4FC
:10265000B85000F087FA0346BB71BB79BB80BB88DA
:102660001B029AB2FB799BB21344BB80BB8818460D
:102670000837BD4680BD80B584B000AF0346FB80FF
:10268000FB88FB73FB881B0A9BB2BB73FB7B194661
:102690004FF4B05000F0B2FABB7B19464FF4C05073
:1026A00000F0ACFA00BF1037BD4680BD80B582B0E7
:1026B00000AF0023FB710023BB710023BB804FF4EC
:1026C000B05000F04FFA0346FB714FF4C05000F0D9
:1026D00049FA0346BB71BB79BB80BB881B029AB227
:1026E000FB799BB21344BB80BB8818460837BD46B4
:1026F00080BD80B582B000AF0023FB714FF438502D
:1027000000F030FA034603F00103002B01D001234F
:10271000FB7197F9073018460837BD4680BD80B574
:1027200082B000AF0023FB714FF4385000F01AFA6A
:10273000034603F03803302B02D10123FB7101E083
:102740000023FB7197F9073018460837BD4680BD56
:1027500080B582B000AF4FF4385000F003FA034662
:10276000FB71FB7903F07F03FB71FB7919464FF492
:10277000385000F043FA4FF4385000F0F3F90346B4
:10278000FB71FB7963F07F03FB71FB7919464FF412
:10279000385000F033FA00BF0837BD4680BD80B521
:1027A00084B000AF78600023FB737B681B78012B3B
:1027B00004D1FB7B43F04003FB7303E0FB7B23F07E
:1027C0004003FB737B685B78012B04D1FB7B43F0F8
:1027D0003803FB7319E07B68DB78012B0DD17B6834
:1027E0009B78012B04D1FB7B43F01803FB730CE0B7
:1027F000FB7B43F00803FB7307E07B689B78012BAE
:1028000003D1FB7B43F01003FB73FB7B19464FF4B2
:10281000385000F0F3F9FFF79BFF00BF1037BD46BB
:1028200080BD80B584B000AF78600023FB734FF4A7
:10283000385000F097F90346FB73FB7B9B11DBB22A
:1028400003F00103DAB27B681A70FB7B03F03803F4
:10285000202B01D0382B03D17B6801225A7003E072
:102860007B6800225A7000BFFB7B03F03803103BEB
:10287000102B8CBF01220022D2B2002A11D10122DA
:1028800002FA03F303F0013323F08073002B14BF2B
:1028900001230023DBB2002B03D07B6801229A7056
:1028A00003E07B6800229A7000BFFB7B03F03803D3
:1028B000083B182B8CBF01220022D2B2002A11D172
:1028C000012202FA03F303F0013323F48073002B97
:1028D00014BF01230023DBB2002B03D07B6801224D
:1028E000DA7003E07B680022DA7000BF00BF1037A7
:1028F000BD4680BD80B584B000AF0346FB710023A8
:10290000FB734FF4385000F02DF90346FB73FB7B4B
:1029100003F04003002B02D14FF0FF3330E0FB7B8C
:1029200023F03803FB73FB79012B04D1FB7B43F0CD
:102930003003FB7303E0FB7B43F03803FB73FB7B4B
:1029400019464FF4385000F059F9FFF701FF4FF4E2
:10295000385000F007F90346FB73FB79012B06D1D1
:10296000FB7B03F03003002B08D0002308E0FB7B47
:1029700003F03803002B01D0002301E04FF0FF33B8
:1029800018461037BD4680BD80B582B000AF786074
:102990007B68062219464FF4106000F0DDF97B6871
:1029A0000E33042219464FF4807000F0D5F97B688D
:1029B0000A33042219464FF4A06000F0CDF97B6879
:1029C0000633042219464FF4706000F0C5F97B68A5
:1029D0009A7C0B4B1A707B68DA7C094B5A707B68C7
:1029E0001A7D074B9A707B685A7D054BDA707B68BD
:1029F0009A7D044B1A7000BF0837BD4680BD00BFEA
:102A0000C0000020C400002080B582B000AF786014
:102A10007B68062219464FF4106000F03DF97B6890
:102A20000E33042219464FF4807000F035F97B68AC
:102A30000A33042219464FF4A06000F02DF97B6898
:102A40000633042219464FF4706000F025F90C4B50
:102A50001A787B689A740A4B5A787B68DA74084B48
:102A60009A787B681A75064BDA787B685A75054B3D
:102A70001A787B689A7500BF0837BD4680BD00BFD5
:102A8000C0000020C400002080B584B000AF034621
:102A9000FB710023FB73FB7923F03A03002B02D078
:102AA0004FF0FF330EE0002000F05CF80346FB73AC
:102AB000FA7BFB791343FB73FB7B1946002000F084
:102AC0009DF8002318461037BD4680BD80B500AF85
:102AD000002000F047F80346184680BD80B582B05C
:102AE00000AF78607B681B7819464FF4D85000F02F
:102AF00085F87B685B881B0A9BB2DBB219464FF4F2
:102B0000C85000F07BF87B685B88DBB219464FF455
:102B1000D05000F073F800BF0837BD4680BD90B5B7
:102B200083B000AF78604FF4D85000F01BF8034634
:102B30001A467B681A704FF4C85000F013F8034629
:102B40009BB21B029CB24FF4D05000F00BF803462E
:102B50009BB223449AB27B685A8000BF0C37BD46B3
:102B600090BD000080B584B000AF7860224BDB6878
:102B70009847214B5B6998471F4B5B6A002B03D03A
:102B80001D4B9B6A002B14D11B4B1B6A7A68120CDD
:102B9000D2B210469847184B1B6A7A68120AD2B212
:102BA00010469847144B1B6A7A68D2B21046984771
:102BB00011E07B681B0CDBB23B737B681B0ADBB24A
:102BC0007B737B68DBB2BB730B4B9B6A07F10C0218
:102BD000032110469847084BDB6998470346FB736F
:102BE000054B9B699847044B1B699847FB7B18462C
:102BF0001037BD4680BD00BF0400002080B584B002
:102C000000AF78600B46FB70224BDB689847214B86
:102C10005B6998477B6843F004037B601D4B9B6AAC
:102C2000002B19D11B4B1B6A7A68120CD2B21046CA
:102C30009847184B1B6A7A68120AD2B21046984716
:102C4000144B1B6A7A68D2B210469847114B1B6A24
:102C5000FA781046984713E07B681B0CDBB23B7395
:102C60007B681B0ADBB27B737B68DBB2BB73FB78D0
:102C7000FB73084B9B6A07F10C020421104698472E
:102C8000044B9B699847034B1B69984700BF10375B
:102C9000BD4680BD0400002090B587B000AFF8604D
:102CA000B9601346FB802B4BDB689847294B5B6967
:102CB0009847284B5B6A002B03D0264B9B6A002B5E
:102CC00026D1244B1B6AFA68120CD2B210469847E0
:102CD000204B1B6AFA68120AD2B2104698471D4B65
:102CE0001B6AFA68D2B2104698470023FB820AE0BA
:102CF000184BDB69FA8AB9688C1898470346237029
:102D0000FB8A0133FB82FA8AFB889A42F0D317E0F0
:102D1000FB681B0CDBB23B74FB681B0ADBB27B74E9
:102D2000FB68DBB2BB740B4B9B6A07F110020321FB
:102D300010469847074B5B6AFA881146B86898476F
:102D4000044B9B699847034B1B69984700BF1C378E
:102D5000BD4690BD0400002080B586B000AFF8608D
:102D6000B9601346FB802B4BDB689847294B5B69A6
:102D70009847FB6843F00403FB60264B9B6A002BDB
:102D800026D1244B1B6AFA68120CD2B2104698471F
:102D9000204B1B6AFA68120AD2B2104698471D4BA4
:102DA0001B6AFA68D2B2104698470023FB820AE0F9
:102DB000184B1B6AFA8AB9680A4412781046984779
:102DC000FB8A0133FB82FA8AFB889A42F0D317E030
:102DD000FB681B0CDBB23B74FB681B0ADBB27B7429
:102DE000FB68DBB2BB740B4B9B6A07F1100203213B
:102DF00010469847074B9B6AFA881146B86898476F
:102E0000044B9B699847034B1B69984700BF1837D1
:102E1000BD4680BD0400002090B585B000AF0346DC
:102E2000FB710023FB810023BB81FB799B000133F5
:102E3000DB0003F500531846FFF794FE0346BB8101
:102E4000BB891B029CB2FB799B000133DB0003F5BD
:102E500004531846FFF786FE03469BB22344BB810A
:102E6000BB89002B1AD0FB799B000133DB0003F5F3
:102E700000531846FFF776FE0346FB81FB891B02D1
:102E80009CB2FB799B000133DB0003F50453184629
:102E9000FFF768FE03469BB22344FB81FA89BB8996
:102EA0009A42C2D1FB8918461437BD4690BD90B5F1
:102EB00085B000AF0346FB710023FB810023BB817B
:102EC000FB799B000133DB0003F518531846FFF72D
:102ED00049FE0346BB81BB891B029CB2FB799B0068
:102EE0000133DB0003F51C531846FFF73BFE034696
:102EF0009BB22344BB81BB89002B1AD0FB799B007A
:102F00000133DB0003F518531846FFF72BFE034689
:102F1000FB81FB891B029CB2FB799B000133DB0028
:102F200003F51C531846FFF71DFE03469BB22344CE
:102F3000FB81FA89BB899A42C2D1FB8918461437B2
:102F4000BD4690BD90B585B000AF03463960FB71BA
:102F50001346BB800023FB810023BB60BB88002B92
:102F600048D0FB799B000133DB0003F51053184672
:102F7000FFF7F8FD03469BB21B029CB2FB799B0056
:102F80000133DB0003F514531846FFF7EBFD03464E
:102F90009BB22344FB81FB891B02FA799200023227
:102FA000D2001344BB60BB881A463968B868FFF783
:102FB000D3FEFA89BB881344FB81FB799B00013364
:102FC000DB0003F510531A46FB891B0A9BB2DBB2E8
:102FD00019461046FFF712FEFB799B000133DB0018
:102FE00003F514531A46FB89DBB219461046FFF766
:102FF00005FE00E000BF1437BD4690BD90B585B01A
:1030000000AF03463960FB711346BB800023FB8190
:103010000023BB60BB88002B48D0FB799B000133A9
:10302000DB0003F520531846FFF79CFD03469BB2D7
:103030001B029CB2FB799B000133DB0003F5245398
:103040001846FFF78FFD03469BB22344FB81FB89A3
:103050001B02FA7992000332D2001344BB60BB8892
:103060001A463968B868FFF717FEFA89BB88134417
:10307000FB81FB799B000133DB0003F520531A46EB
:10308000FB891B0A9BB2DBB219461046FFF7B6FD5F
:10309000FB799B000133DB0003F524531A46FB89BF
:1030A000DBB219461046FFF7A9FD00E000BF143758
:1030B000BD4690BD90B585B000AF03460A46FB7192
:1030C0001346BB800023FB81FB799B000133DB00AF
:1030D00003F520531846FFF745FD03469BB21B023C
:1030E0009CB2FB799B000133DB0003F524531846A7
:1030F000FFF738FD03469BB22344FB81FA89BB8866
:103100001344FB81FB799B000133DB0003F5205363
:103110001A46FB891B0A9BB2DBB219461046FFF721
:103120006DFDFB799B000133DB0003F524531A4648
:10313000FB89DBB219461046FFF760FD00BF14376C
:10314000BD4690BD80B400AF064BD3F88830054A29
:1031500043F47003C2F8883000BFBD465DF8047BBD
:10316000704700BF00ED00E0DFF834D00D480E4995
:103170000E4A002302E0D458C4500433C4188C42D1
:10318000F9D30B4A0B4C002301E013600432A24236
:10319000FBD3FFF7D7FF00F011F8FDF705F9FEE7C5
:1031A0000080012000000020980000200449000851
:1031B00098000020DC000020FEE7000070B50D4DF7
:1031C0000D4C641BA4100026A64209D10B4D0C4CDB
:1031D00001F058F9641BA4100026A64205D170BD69
:1031E00055F8043B98470136EEE755F8043B9847FD
:1031F0000136F2E7000000000000000000000000BF
:1032000000000000024B0146186800F085B800BFBE
:10321000340000200A44914200F1FF3300D170478E
:1032200010B511F8014B03F8014F9142F9D110BDCF
:1032300002440346934200D1704703F8011BF9E7AB
:1032400037B5002944D051F8043C0190002BA1F17E
:103250000404B8BFE41800F0D3FC1E4A01981368B8
:1032600033B96360146003B0BDE8304000F0CEBCF9
:10327000A34208D9256861198B4201BF19685B68B0
:1032800049192160EDE71A465B680BB1A342FAD9F0
:1032900011685518A5420BD1246821445418A34243
:1032A0001160E0D11C685B68536021441160DAE76B
:1032B00002D90C230360D6E7256861198B4204BF4D
:1032C00019685B68636004BF491921605460CAE7EC
:1032D00003B030BDC800002070B50E4E0C463168FA
:1032E000054611B900F058F930602146284600F033
:1032F00053F9431C0AD0C41C24F00304A04207D095
:10330000211A284600F048F9013001D14FF0FF346E
:10331000204670BDCC0000202DE9F041CD1C25F0E9
:10332000030508350C2D38BF0C25002D074601DBA1
:10333000A94205D90C233B6000263046BDE8F08148
:103340002E4E00F05DFC33681C4634BB29463846DF
:10335000FFF7C2FF431C04464DD134682646002EB9
:1033600040D123683146384604EB030800F014F9D5
:1033700080453AD1216803356D1A25F003050835DB
:103380000C2D38BF0C2529463846FFF7A5FF013024
:103390002BD023682B4423600EE02268521B1ED4DE
:1033A0000B2A16D96119A342256018BF59606368BA
:1033B00008BF316062514B60384604F10B0600F0E3
:1033C00025FC26F00706231DF21AB6D09B1BA3503E
:1033D000B3E76268A3420CBF32605A60ECE7234651
:1033E0006468B2E734467668B9E70C233B60384638
:1033F00000F00CFCA1E72560DEE700BFC80000205C
:103400000FB40A4B13B51C6824B1A36913B9204645
:1034100000F0DEFA05AB049AA1680193204600F0A3
:1034200025FC02B0BDE8104004B070473400002015
:1034300070B50E46054618B183690BB900F0C8FA9D
:10344000AB69AC6813B9284600F0C2FA2C4B9C4219
:1034500020D16C68636EDB0705D4A389980502D47C
:10346000A06D00F065FBA38919071DD52369DBB1A9
:10347000013EA36816F8011F013BA36039BB002B76
:1034800038DA22460A21284600F0AAF8013011D085
:103490000A2511E01B4B9C4201D1AC68DAE71A4BBC
:1034A0009C4208BFEC68D5E72146284600F0EAF8C0
:1034B0000028DDD04FF0FF35636EDA0705D4A3890D
:1034C0009B0502D4A06D00F034FB284670BD002B94
:1034D00004DAA2699A4206DC0A2904D023685A1C3D
:1034E00022601970C5E72246284600F079F80130BD
:1034F000BFD1DFE723680A255A1C22601D70DBE775
:1035000090480008B048000870480008024B014687
:103510001868FFF78DBF00BF34000020164B10B5B0
:103520001C68A36BB3B91820FFF76CFEA06328B921
:103530000246124B12484E2100F012F9114A124B6A
:10354000C0E90023114B83600B23838101220023F8
:10355000C0E90423A46B0E4A206963690D49424304
:1035600001FB0322A0FB0101431C42EB0100C4E963
:10357000043020F0004010BD340000209C470008BB
:10358000B34700080E33CDAB34126DE6ECDE050018
:103590002DF451582D7F954C38B5064D0023044627
:1035A00008462B6000F056FF431C02D12B6803B184
:1035B000236038BDD400002010B57AB1034601392C
:1035C000841813F8010B11F8012F904201D1A34286
:1035D00001D1801A10BD0028F3D1FAE71046F9E7AF
:1035E000F8B50E461446054618B183690BB900F0CC
:1035F000EFF9214B9C422BD16C68A369A360A3898E
:103600001A072FD523696BB323692068C01A636931
:10361000F6B28342374604DC2146284600F044F9DE
:1036200030BBA368013BA36023685A1C22601E7054
:1036300063690130834204D0A389DB0706D50A2ED3
:1036400004D12146284600F02FF988B93846F8BD44
:103650000A4B9C4201D1AC68CFE7094B9C4208BFA2
:10366000EC68CAE72146284600F00CF80028CBD0C9
:103670004FF0FF37EAE700BF90480008B048000865
:1036800070480008324B70B51D6806460C4625B1DF
:10369000AB6913B9284600F09BF92E4B9C420FD121
:1036A0006C68A389B4F90C2019072CD4DD0611D459
:1036B0000923336042F04003A3814FF0FF303EE026
:1036C000254B9C4201D1AC68EBE7244B9C4208BFE0
:1036D000EC68E6E7580712D5616B41B104F1440389
:1036E000994202D03046FFF7ABFD00236363A38904
:1036F00023F02403A3810023636023692360A3894B
:1037000043F00803A38123694BB9A38903F4207311
:10371000B3F5007F03D02146304600F031FAA0898E
:10372000B4F90C2010F001030AD00023A3606369F0
:103730005B42A361236943B910F08000BAD170BD28
:10374000810758BF6369A360F4E70020F7E700BF73
:103750003400002090480008B04800087048000875
:103760001FB514461A46094B1B680546D8684CB16C
:10377000074B0091CDE9013406492B4600F0A6F92C
:1037800000F08EFD044B1C46F3E700BF3400002020
:10379000314800083E4800086C4800088A892DE935
:1037A000F041054610070C4658D44B68002B05DC49
:1037B0000B6C002B02DC0020BDE8F081E66A002ED5
:1037C000F9D0002312F480522F682B6032D0606D44
:1037D000A3895A0705D56368C01A636B0BB1236CC4
:1037E000C01A00230246E66A216A2846B047431CF5
:1037F000A38906D129681D292CD82A4ACA40D60790
:1038000028D500226260D9042269226004D5421CB6
:1038100001D12B6803B96065616B2F600029CAD0A4
:1038200004F14403994202D02846FFF709FD002025
:103830006063C1E7216A01232846B047411CC7D114
:103840002B68002BC4D01D2B01D0162B01D12F606B
:10385000B1E7A38943F04003A381ADE70F69002FCF
:10386000A9D093070E6808BF4B690F6018BF0023EB
:10387000A6EB07088B60B8F1000F9CDD216AA66AF1
:1038800043463A462846B047002806DCA38943F061
:103890004003A3814FF0FF308EE70744A8EB0008F8
:1038A000E9E700BF0100402038B50B6905460C462A
:1038B00013B90025284638BD18B183690BB900F04B
:1038C00087F8144B9C421BD16C68B4F90C30002B68
:1038D000EFD0626ED00704D4990502D4A06D00F039
:1038E00027F928462146FFF759FF636EDA07054698
:1038F000E0D4A3899B05DDD4A06D00F01AF9D9E7C7
:10390000054B9C4201D1AC68DFE7044B9C4208BFE9
:10391000EC68DAE790480008B048000870480008F2
:10392000002310B50446C0E90033C0E904338360C6
:1039300081814366C2818361194608225C30FFF7AA
:1039400077FC054B6362054BA362054BE362054BB5
:103950002462236310BD00BFF54100081742000830
:103960004F42000873420008014900F0C1B800BF8F
:10397000A938000870B568224D1E55430E4605F162
:103980007401FFF7C9FC044640B10021C0E90016EC
:103990000C30A06005F16802FFF74AFC204670BDBC
:1039A000014800F0C5B800BFD1000020014800F078
:1039B000C0B800BFD1000020014800F0B9B800BF76
:1039C000D2000020014800F0B4B800BFD2000020AF
:1039D00010B50446FFF7F0FFA3691BB1BDE8104026
:1039E000FFF7F0BFC4E912332365134B134A1B687A
:1039F000A262A34204BF0123A361204600F020F885
:103A00006060204600F01CF8A060204600F018F826
:103A10000022E06004216068FFF782FFA0680122B5
:103A20000921FFF77DFFE06802221221FFF778FFEE
:103A30000123A361D2E700BF984700086939000855
:103A4000F8B50746FFF7ACFF1E4B1E68B36913B904
:103A50003046FFF7BDFF4836D6E90134013B03D5B8
:103A600033680BB33668F7E7B4F90C50D5B9164B89
:103A7000E36004F15800656600F059F8FFF796FF1F
:103A8000C4E90155C4E904552560A5610822294609
:103A900004F15C00FFF7CCFBC4E90D55C4E91255F5
:103AA0002046F8BD6834D9E704213846FFF762FFA5
:103AB000044630600028D5D1FFF778FF0C233B6027
:103AC000EEE700BF984700080100FFFF0EB403B502
:103AD000014603AB054853F8042B0068019300F03E
:103AE000C5F802B05DF804EB03B070473400002065
:103AF0002DE9F8430646884600F148040027D4E93A
:103B00000195B9F1010905D52468002CF7D1384693
:103B1000BDE8F883AB89012B07D9B5F90E30013325
:103B200003D029463046C04707436835E9E7704768
:103B30007047704770B50E46B1F90E10002996B067
:103B400014461D4608DAB6F90C3000222A601A061F
:103B500010D44FF480630EE06A4600F0B9FB0028F1
:103B6000F1DB019A02F47042A2F500535A425A4125
:103B70002A60EEE740230020236016B070BD0000ED
:103B80008B8973B59D0706460C4607D504F147039C
:103B9000236023610123636102B070BD01AB6A46FB
:103BA000FFF7C8FF009905463046FFF7B5FB48B957
:103BB000B4F90C309A05EFD423F0030343F0020369
:103BC000A381E3E70D4BB362A389206043F0800338
:103BD000A381009B6361019B20615BB1B4F90E106E
:103BE000304600F087FB28B1A38923F0030343F09C
:103BF0000103A381A0890543A581CDE769390008A8
:103C00000148FFF795BF00BFD00000200148FFF733
:103C100090BF00BFD00000209368013B002B10B480
:103C2000936008DA9469A34201DB0A2903D15DF8A5
:103C3000044BFFF7D5BC1368581C10601970084678
:103C40005DF8044B7047F8B506460F461446D51884
:103C5000AC4201D1002007E014F8011B3A4630467F
:103C6000FFF7DAFF431CF3D1F8BD00002DE9F04F58
:103C70000D469DB014469846064618B183690BB9A7
:103C8000FFF7A6FE894B9D421BD175686B6ED90765
:103C900005D4AB899A0502D4A86DFFF749FFAB891B
:103CA0001B0701D52B69EBB929463046FFF7EAFC23
:103CB000C0B16B6EDC070ED54FF0FF301DB0BDE814
:103CC000F08F7B4B9D4201D1B568DFE7794B9D4278
:103CD00008BFF568DAE7AB899805EDD4A86DFFF762
:103CE00028FFE9E70023099320238DF82930CDF838
:103CF0000C803023DFF8C0818DF82A304FF00109A5
:103D000023469A4613F8012B0AB1252AF9D1BAEBBA
:103D1000040B0BD05B46224629463046FFF793FF43
:103D2000013000F0AA80099A5A4409929AF80030AA
:103D3000002B00F0A28000234FF0FF32CDE90523D5
:103D40000AF1010A049307938DF853301A935446ED
:103D5000052214F8011B5848FCF72AFA049AD8B92E
:103D6000D10644BF20238DF85330130744BF2B23C3
:103D70008DF853309AF800302A2B15D0079A544604
:103D800000204FF00A0C214611F8013B303B092B73
:103D90004ED9B0B1079214E0A0EB080309FA03F37F
:103DA00013430493A246D2E7039B191D1B6803919A
:103DB000002BBBBF5B4242F0020207930793B8BFE0
:103DC000049223782E2B0CD163782A2B35D1039BB8
:103DD0001A1D1B680392002BB8BF4FF0FF3302344B
:103DE0000593DFF8E4A0217803225046FCF7E0F9C0
:103DF00040B14023A0EB0A0003FA00F0049B034308
:103E00000134049314F8011B2C488DF82810062265
:103E1000FCF7CEF900283FD0294B1BBB039B07338F
:103E200023F0070308330393099B3B44099367E797
:103E30000CFB02320C460120A5E700230134059358
:103E400019464FF00A0C204610F8012B303A092A87
:103E500003D9002BC5D00591C3E70CFB0121044613
:103E60000123F0E703AB00932A46164B04A9304622
:103E7000AFF300800746781CD6D16B6ED90705D406
:103E8000AB899A0502D4A86DFFF753FEAB895B0698
:103E90003FF512AF099811E703AB00932A46094B8F
:103EA00004A9304600F080F8E4E700BF904800081D
:103EB000B048000870480008D0480008DA480008F8
:103EC00000000000473C0008D64800082DE9F047F4
:103ED000164699468A680B69DDF820809342B8BF80
:103EE0001346336091F8432007460C460AB101336C
:103EF00033602368990642BF336802333360256814
:103F000015F0060506D104F1190AE36832689B1A18
:103F1000AB4226DC94F84320131E226818BF01230D
:103F200092062BD404F1430249463846C04701307B
:103F30001ED02368E568326803F00603042B08BF2F
:103F4000AD1AA36822690CBF25EAE57500259342E6
:103F5000C4BF9B1AED1800261A34B5421AD10020AE
:103F600008E00123524649463846C047013003D194
:103F70004FF0FF30BDE8F0870135C6E7E1185A1C65
:103F8000302081F84300224494F8451082F8431011
:103F90000233C7E70123224649463846C04701306D
:103FA000E6D00136D9E700002DE9FF470F7E0C9DD2
:103FB000782F914680460C469A4601F1430207D875
:103FC000622F0AD8002F00F0D880582F00F0A3806D
:103FD00004F1420584F842703AE0A7F16303152B1F
:103FE000F6D801A151F823F04140000855400008DF
:103FF000D13F0008D13F0008D13F0008D13F000861
:1040000055400008D13F0008D13F0008D13F0008CB
:10401000D13F000861410008854000084341000885
:10402000D13F0008D13F000883410008D13F00087C
:1040300085400008D13F0008D13F00084B410008EF
:104040002B681A1D1B682A6004F1420584F842306F
:104050000123A3E020682968060601F104030AD5BC
:104060000E682B60002E03DA2D23764284F843304D
:104070005E480A2319E00E682B6010F0400F18BF4D
:1040800036B2EFE72B682068191D2960010601D5BB
:104090001E6802E04606FBD51E8854486F2F0CBFF1
:1040A00008230A23002184F843106568A560002DC9
:1040B000A2BF216821F0040121600EB9002D4DD06E
:1040C0001546B6FBF3F103FB1167C75D05F8017DEB
:1040D0003746BB420E46F4D9082B0BD12368DE07C6
:1040E00008D5236961689942DEBF302305F8013C99
:1040F00005F1FF35521B2261CDF800A04B4603AA03
:1041000021464046FFF7E2FE01304CD14FF0FF3030
:1041100004B0BDE8F087354881F845702968236808
:1041200051F8046B29601D0614D5DF0744BF43F026
:10413000200323601EB9236823F02003236010238B
:10414000B0E7236843F0200323607823284884F8ED
:104150004530E3E7590648BFB6B2E6E71546BBE788
:104160002B6826686169181D286035061B6801D513
:10417000196002E07006FBD5198000232361154603
:10418000BAE72B681A1D2A601D686268002128465C
:10419000FCF70EF808B1401B6060636823610023E0
:1041A00084F84330A8E723692A4649464046D04769
:1041B0000130ABD023689B0713D4E068039B98427F
:1041C000B8BF1846A4E70123324649464046D047C7
:1041D00001309BD00135E36803995B1AAB42F2DCF6
:1041E000EBE7002504F11906F5E700BFE1480008F8
:1041F000F248000810B50C46B1F90E1000F09CF81A
:104200000028ABBF636DA3891B1823F48053ACBF98
:104210006365A38110BD2DE9F0411F468B89DB0545
:1042200005460C46164605D5B1F90E1002230022AC
:1042300000F070F8A389B4F90E1023F48053A38121
:1042400032463B462846BDE8F04100F017B810B5AD
:104250000C46B1F90E1000F05DF8431CA38915BFA0
:10426000606523F4805343F48053A38118BFA38176
:1042700010BDB1F90E1000F01BB8000038B5074DA5
:1042800004460846114600222A601A4600F0F0F85B
:10429000431C02D12B6803B1236038BDD400002039
:1042A00008B5062000F082F8012000F0E9F80000CF
:1042B00038B5064D0023044608462B6000F092F8FE
:1042C000431C02D12B6803B1236038BDD400002009
:1042D00038B5074D00230446084611462B6000F010
:1042E00089F8431C02D12B6803B1236038BD00BF9D
:1042F000D400002038B5064D0023044608462B6044
:1043000000F088F8431C02D12B6803B1236038BD4C
:10431000D400002038B5074D044608461146002257
:104320002A601A4600F086F8431C02D12B6803B1BC
:10433000236038BDD400002038B5074D0446084638
:10434000114600222A601A4600F07CF8431C02D174
:104350002B6803B1236038BDD40000201F2938B575
:1043600004460D4604D9162303604FF0FF3038BDD4
:10437000426C12B152F821304BB9204600F030F8AF
:104380002A4601462046BDE8384000F017B8012B08
:104390000AD0591C03D1162303600120E7E700244B
:1043A00042F82540284698470020E0E7024B0146A6
:1043B0001868FFF7D3BF00BF3400002038B5074DA1
:1043C00000230446084611462B6000F02BF8431CDE
:1043D00002D12B6803B1236038BD00BFD400002098
:1043E00000F010B8024B58221A604FF0FF307047AF
:1043F000D4000020024B58221A604FF0FF30704763
:10440000D4000020024B58221A604FF0FF30704752
:10441000D4000020024B58221A600020704700BFD1
:10442000D4000020024B58221A604FF0FF30704732
:10443000D4000020024B58221A604FF0FF30704722
:10444000D4000020024B58221A604FF0FF30704712
:10445000D4000020044A05491368002B08BF0B460E
:104460001844106018467047D8000020E000002073
:10447000024B58221A604FF0FF307047D4000020E2
:10448000FEE700BFF8B500BFF8BC08BC9E46704709
:0C449000F8B500BFF8BC08BC9E467047A1
:10449C0068656C6C6F000000636865636B5F6669D0
:1044AC00726D7761726500000008DCABCDEF000027
:1044BC00434845434B5F4649524D574152455F4F28
:1044CC004B000000636865636B5F6669726D7761B2
:1044DC0072650000636865636B2F6669726D776146
:1044EC00726500000D0A436865636B696E67206531
:1044FC00746865726E6574206361626C652070729D
:10450C006573656E6365202E2E2E0D004661696CF9
:10451C00656420746F2067657420504859206C695D
:10452C006E6B20696E666F2E0D0A547279696E6718
:10453C0020616761696E2E2E2E0D00004361626C46
:10454C0065206973206E6F7420636F6E6E65637483
:10455C0065642E0D000000004361626C6520697378
:10456C0020636F6E6E65637465642E0D0000000031
:10457C004661696C656420746F20676574205048CF
:10458C0059206C696E6B207374617475732E0D00F9
:10459C00504859204C696E6B206973204F4E2E0D7C
:1045AC0000000000504859204C696E6B2069732044
:1045BC004F46462E0D0000004661696C6564207400
:1045CC006F206765742050485920636F6E66696769
:1045DC0075726174696F6E2E0D0000005048592081
:1045EC004D6F64653A200000436F6E6669677572A3
:1045FC0065642062792068617264776172652E0D42
:10460C0000000000436F6E66696775726564206216
:10461C007920736F6674776172652E0D000000004F
:10462C00556E6B6E6F776E2E0D0000005048592042
:10463C0053706565643A20003130204D6270732EE2
:10464C000D000000313030204D6270732E0D0000D3
:10465C00504859204475706C65783A200000000071
:10466C0048616C66206475706C65782E0D000000D6
:10467C0046756C6C206475706C65782E0D000000AE
:10468C00504859204E65676F74696174696F6E206C
:10469C004D6F64653A2000004D616E75616C2E0D96
:1046AC00000000004175746F2D6E65676F74696151
:1046BC0074696F6E2E0D00004D41433A2025303247
:1046CC00583A253032583A253032583A253032583B
:1046DC003A253032583A253032580D0A0000000085
:1046EC0049503A2025642E25642E25642E25640D10
:1046FC000A000000534E3A2025642E25642E2564B2
:10470C002E25640D0A00000047573A2025642E25FB
:10471C00642E25642E25640D0A000000444E533A85
:10472C002025642E25642E25642E25640D0A000098
:10473C0057495A4348495020696E697469616C69DC
:10474C007A6174696F6E206661696C65640D000036
:10475C0057495A4348495020696E697469616C69BC
:10476C007A6174696F6E20646F6E65207375636314
:10477C0065737366756C6C790D00000002020202A1
:10478C0002020202020202020202020238000020AD
:10479C005245454E54206D616C6C6F63207375638C
:1047AC00636565646564002F6D6E742F776F726B33
:1047BC0073706163652F776F726B73706163652FB4
:1047CC004743432D31302D706970656C696E652FD0
:1047DC006A656E6B696E732D4743432D31302D70B6
:1047EC006970656C696E652D3333385F32303231E8
:1047FC00313031385F313633343531363230332F56
:10480C007372632F6E65776C69622F6E65776C6956
:10481C00622F6C6962632F7374646C69622F7261AE
:10482C006E642E63002C2066756E6374696F6E3A2D
:10483C002000617373657274696F6E202225732278
:10484C00206661696C65643A2066696C6520222576
:10485C0073222C206C696E65202564257325730AE0
:10486C00000000000000000000000000000000003C
:10487C00000000000000000000000000000000002C
:10488C00000000000000000000000000000000001C
:10489C00000000000000000000000000000000000C
:1048AC0000000000000000000000000000000000FC
:1048BC0000000000000000000000000000000000EC
:1048CC0000000000232D302B2000686C4C00656626
:1048DC006745464700303132333435363738394145
:1048EC00424344454600303132333435363738395B
:0848FC0061626364656600005F
:1049040000C00000010257353530300000000000BF
:10491400112000081F2000082D2000083B2000085B
:104924004920000863200008000000000000000087
:104934000024F40038000020000000009048000823
:10494400B0480008704800080000000000000000A3
:104954000000000000000000000000000000000053
:104964000000000000000000000000000000000043
:104974000000000000000000000000000000000033
:104984000000000000000000000000000000000023
:0849940000000000000000001B
:040000050800316955
:00000001FF
